{
  "contracts/DatePledge.sol": {
    "DatePledge": {
      "abi": [
        {
          "inputs": [
            {
              "internalType": "address",
              "name": "_cUSD",
              "type": "address"
            },
            {
              "internalType": "address",
              "name": "_treasury",
              "type": "address"
            },
            {
              "internalType": "address",
              "name": "_matchNFT",
              "type": "address"
            }
          ],
          "stateMutability": "nonpayable",
          "type": "constructor"
        },
        {
          "inputs": [
            {
              "internalType": "address",
              "name": "owner",
              "type": "address"
            }
          ],
          "name": "OwnableInvalidOwner",
          "type": "error"
        },
        {
          "inputs": [
            {
              "internalType": "address",
              "name": "account",
              "type": "address"
            }
          ],
          "name": "OwnableUnauthorizedAccount",
          "type": "error"
        },
        {
          "anonymous": false,
          "inputs": [
            {
              "indexed": true,
              "internalType": "uint256",
              "name": "pledgeId",
              "type": "uint256"
            },
            {
              "indexed": false,
              "internalType": "address",
              "name": "signer",
              "type": "address"
            }
          ],
          "name": "CancelSigned",
          "type": "event"
        },
        {
          "anonymous": false,
          "inputs": [
            {
              "indexed": true,
              "internalType": "uint256",
              "name": "pledgeId",
              "type": "uint256"
            },
            {
              "indexed": false,
              "internalType": "address",
              "name": "confirmer",
              "type": "address"
            }
          ],
          "name": "DateConfirmed",
          "type": "event"
        },
        {
          "anonymous": false,
          "inputs": [
            {
              "indexed": true,
              "internalType": "address",
              "name": "previousOwner",
              "type": "address"
            },
            {
              "indexed": true,
              "internalType": "address",
              "name": "newOwner",
              "type": "address"
            }
          ],
          "name": "OwnershipTransferred",
          "type": "event"
        },
        {
          "anonymous": false,
          "inputs": [
            {
              "indexed": true,
              "internalType": "uint256",
              "name": "pledgeId",
              "type": "uint256"
            },
            {
              "indexed": false,
              "internalType": "address",
              "name": "acceptor",
              "type": "address"
            }
          ],
          "name": "PledgeAccepted",
          "type": "event"
        },
        {
          "anonymous": false,
          "inputs": [
            {
              "indexed": true,
              "internalType": "uint256",
              "name": "pledgeId",
              "type": "uint256"
            },
            {
              "indexed": false,
              "internalType": "uint256",
              "name": "feeToTreasury",
              "type": "uint256"
            },
            {
              "indexed": false,
              "internalType": "uint256",
              "name": "eachRefund",
              "type": "uint256"
            }
          ],
          "name": "PledgeCancelled",
          "type": "event"
        },
        {
          "anonymous": false,
          "inputs": [
            {
              "indexed": true,
              "internalType": "uint256",
              "name": "pledgeId",
              "type": "uint256"
            }
          ],
          "name": "PledgeCompleted",
          "type": "event"
        },
        {
          "anonymous": false,
          "inputs": [
            {
              "indexed": true,
              "internalType": "uint256",
              "name": "pledgeId",
              "type": "uint256"
            }
          ],
          "name": "PledgeFullyLocked",
          "type": "event"
        },
        {
          "anonymous": false,
          "inputs": [
            {
              "indexed": true,
              "internalType": "uint256",
              "name": "pledgeId",
              "type": "uint256"
            },
            {
              "indexed": false,
              "internalType": "address",
              "name": "locker",
              "type": "address"
            }
          ],
          "name": "PledgeLocked",
          "type": "event"
        },
        {
          "anonymous": false,
          "inputs": [
            {
              "indexed": true,
              "internalType": "uint256",
              "name": "pledgeId",
              "type": "uint256"
            },
            {
              "indexed": true,
              "internalType": "uint256",
              "name": "matchId",
              "type": "uint256"
            },
            {
              "indexed": false,
              "internalType": "address",
              "name": "proposer",
              "type": "address"
            },
            {
              "indexed": false,
              "internalType": "uint256",
              "name": "amountEach",
              "type": "uint256"
            }
          ],
          "name": "PledgeProposed",
          "type": "event"
        },
        {
          "anonymous": false,
          "inputs": [
            {
              "indexed": true,
              "internalType": "uint256",
              "name": "pledgeId",
              "type": "uint256"
            },
            {
              "indexed": false,
              "internalType": "address",
              "name": "initiator",
              "type": "address"
            },
            {
              "indexed": false,
              "internalType": "uint256",
              "name": "eachRefund",
              "type": "uint256"
            }
          ],
          "name": "Unstaked",
          "type": "event"
        },
        {
          "inputs": [],
          "name": "CANCEL_FEE_BPS",
          "outputs": [
            {
              "internalType": "uint256",
              "name": "",
              "type": "uint256"
            }
          ],
          "stateMutability": "view",
          "type": "function"
        },
        {
          "inputs": [],
          "name": "CANCEL_TIMEOUT",
          "outputs": [
            {
              "internalType": "uint256",
              "name": "",
              "type": "uint256"
            }
          ],
          "stateMutability": "view",
          "type": "function"
        },
        {
          "inputs": [],
          "name": "LOCK_DEADLINE",
          "outputs": [
            {
              "internalType": "uint256",
              "name": "",
              "type": "uint256"
            }
          ],
          "stateMutability": "view",
          "type": "function"
        },
        {
          "inputs": [],
          "name": "MIN_PLEDGE",
          "outputs": [
            {
              "internalType": "uint256",
              "name": "",
              "type": "uint256"
            }
          ],
          "stateMutability": "view",
          "type": "function"
        },
        {
          "inputs": [
            {
              "internalType": "uint256",
              "name": "pledgeId",
              "type": "uint256"
            }
          ],
          "name": "accept",
          "outputs": [],
          "stateMutability": "nonpayable",
          "type": "function"
        },
        {
          "inputs": [],
          "name": "cUSD",
          "outputs": [
            {
              "internalType": "contract IERC20",
              "name": "",
              "type": "address"
            }
          ],
          "stateMutability": "view",
          "type": "function"
        },
        {
          "inputs": [
            {
              "internalType": "uint256",
              "name": "pledgeId",
              "type": "uint256"
            }
          ],
          "name": "cancel",
          "outputs": [],
          "stateMutability": "nonpayable",
          "type": "function"
        },
        {
          "inputs": [
            {
              "internalType": "uint256",
              "name": "pledgeId",
              "type": "uint256"
            }
          ],
          "name": "cancelExpired",
          "outputs": [],
          "stateMutability": "nonpayable",
          "type": "function"
        },
        {
          "inputs": [
            {
              "internalType": "uint256",
              "name": "pledgeId",
              "type": "uint256"
            }
          ],
          "name": "confirm",
          "outputs": [],
          "stateMutability": "nonpayable",
          "type": "function"
        },
        {
          "inputs": [
            {
              "internalType": "uint256",
              "name": "pledgeId",
              "type": "uint256"
            }
          ],
          "name": "getEscrow",
          "outputs": [
            {
              "internalType": "uint256",
              "name": "",
              "type": "uint256"
            }
          ],
          "stateMutability": "view",
          "type": "function"
        },
        {
          "inputs": [
            {
              "internalType": "uint256",
              "name": "pledgeId",
              "type": "uint256"
            }
          ],
          "name": "getPledge",
          "outputs": [
            {
              "components": [
                {
                  "internalType": "uint256",
                  "name": "matchId",
                  "type": "uint256"
                },
                {
                  "internalType": "address",
                  "name": "proposer",
                  "type": "address"
                },
                {
                  "internalType": "address",
                  "name": "acceptor",
                  "type": "address"
                },
                {
                  "internalType": "uint256",
                  "name": "amountEach",
                  "type": "uint256"
                },
                {
                  "internalType": "uint256",
                  "name": "scheduledAt",
                  "type": "uint256"
                },
                {
                  "internalType": "uint256",
                  "name": "acceptedAt",
                  "type": "uint256"
                },
                {
                  "internalType": "bool",
                  "name": "proposerLocked",
                  "type": "bool"
                },
                {
                  "internalType": "bool",
                  "name": "acceptorLocked",
                  "type": "bool"
                },
                {
                  "internalType": "bool",
                  "name": "proposerConfirmed",
                  "type": "bool"
                },
                {
                  "internalType": "bool",
                  "name": "acceptorConfirmed",
                  "type": "bool"
                },
                {
                  "internalType": "bool",
                  "name": "proposerCancelSigned",
                  "type": "bool"
                },
                {
                  "internalType": "bool",
                  "name": "acceptorCancelSigned",
                  "type": "bool"
                },
                {
                  "internalType": "uint256",
                  "name": "cancelSignedAt",
                  "type": "uint256"
                },
                {
                  "internalType": "enum DatePledge.PledgeStatus",
                  "name": "status",
                  "type": "uint8"
                }
              ],
              "internalType": "struct DatePledge.Pledge",
              "name": "",
              "type": "tuple"
            }
          ],
          "stateMutability": "view",
          "type": "function"
        },
        {
          "inputs": [
            {
              "internalType": "uint256",
              "name": "pledgeId",
              "type": "uint256"
            }
          ],
          "name": "lock",
          "outputs": [],
          "stateMutability": "nonpayable",
          "type": "function"
        },
        {
          "inputs": [],
          "name": "matchNFT",
          "outputs": [
            {
              "internalType": "contract IMatchNFTForPledge",
              "name": "",
              "type": "address"
            }
          ],
          "stateMutability": "view",
          "type": "function"
        },
        {
          "inputs": [],
          "name": "owner",
          "outputs": [
            {
              "internalType": "address",
              "name": "",
              "type": "address"
            }
          ],
          "stateMutability": "view",
          "type": "function"
        },
        {
          "inputs": [],
          "name": "pledgeCount",
          "outputs": [
            {
              "internalType": "uint256",
              "name": "",
              "type": "uint256"
            }
          ],
          "stateMutability": "view",
          "type": "function"
        },
        {
          "inputs": [
            {
              "internalType": "uint256",
              "name": "",
              "type": "uint256"
            }
          ],
          "name": "pledges",
          "outputs": [
            {
              "internalType": "uint256",
              "name": "matchId",
              "type": "uint256"
            },
            {
              "internalType": "address",
              "name": "proposer",
              "type": "address"
            },
            {
              "internalType": "address",
              "name": "acceptor",
              "type": "address"
            },
            {
              "internalType": "uint256",
              "name": "amountEach",
              "type": "uint256"
            },
            {
              "internalType": "uint256",
              "name": "scheduledAt",
              "type": "uint256"
            },
            {
              "internalType": "uint256",
              "name": "acceptedAt",
              "type": "uint256"
            },
            {
              "internalType": "bool",
              "name": "proposerLocked",
              "type": "bool"
            },
            {
              "internalType": "bool",
              "name": "acceptorLocked",
              "type": "bool"
            },
            {
              "internalType": "bool",
              "name": "proposerConfirmed",
              "type": "bool"
            },
            {
              "internalType": "bool",
              "name": "acceptorConfirmed",
              "type": "bool"
            },
            {
              "internalType": "bool",
              "name": "proposerCancelSigned",
              "type": "bool"
            },
            {
              "internalType": "bool",
              "name": "acceptorCancelSigned",
              "type": "bool"
            },
            {
              "internalType": "uint256",
              "name": "cancelSignedAt",
              "type": "uint256"
            },
            {
              "internalType": "enum DatePledge.PledgeStatus",
              "name": "status",
              "type": "uint8"
            }
          ],
          "stateMutability": "view",
          "type": "function"
        },
        {
          "inputs": [
            {
              "internalType": "uint256",
              "name": "matchId",
              "type": "uint256"
            },
            {
              "internalType": "uint256",
              "name": "amountEach",
              "type": "uint256"
            },
            {
              "internalType": "uint256",
              "name": "scheduledAt",
              "type": "uint256"
            }
          ],
          "name": "propose",
          "outputs": [
            {
              "internalType": "uint256",
              "name": "pledgeId",
              "type": "uint256"
            }
          ],
          "stateMutability": "nonpayable",
          "type": "function"
        },
        {
          "inputs": [],
          "name": "renounceOwnership",
          "outputs": [],
          "stateMutability": "nonpayable",
          "type": "function"
        },
        {
          "inputs": [
            {
              "internalType": "uint256",
              "name": "pledgeId",
              "type": "uint256"
            }
          ],
          "name": "resolveTimeout",
          "outputs": [],
          "stateMutability": "nonpayable",
          "type": "function"
        },
        {
          "inputs": [
            {
              "internalType": "address",
              "name": "_treasury",
              "type": "address"
            }
          ],
          "name": "setTreasury",
          "outputs": [],
          "stateMutability": "nonpayable",
          "type": "function"
        },
        {
          "inputs": [
            {
              "internalType": "uint256",
              "name": "pledgeId",
              "type": "uint256"
            }
          ],
          "name": "signMutualCancel",
          "outputs": [],
          "stateMutability": "nonpayable",
          "type": "function"
        },
        {
          "inputs": [
            {
              "internalType": "address",
              "name": "newOwner",
              "type": "address"
            }
          ],
          "name": "transferOwnership",
          "outputs": [],
          "stateMutability": "nonpayable",
          "type": "function"
        },
        {
          "inputs": [],
          "name": "treasury",
          "outputs": [
            {
              "internalType": "address",
              "name": "",
              "type": "address"
            }
          ],
          "stateMutability": "view",
          "type": "function"
        },
        {
          "inputs": [
            {
              "internalType": "uint256",
              "name": "pledgeId",
              "type": "uint256"
            }
          ],
          "name": "unstake",
          "outputs": [],
          "stateMutability": "nonpayable",
          "type": "function"
        }
      ],
      "evm": {
        "bytecode": {
          "linkReferences": {},
          "object": "60a060405234801561000f575f5ffd5b5060405161234738038061234783398101604081905261002e916100fd565b338061005357604051631e4fbdf760e01b81525f600482015260240160405180910390fd5b61005c81610093565b506001600160a01b03928316608052600180549284166001600160a01b03199384161790556002805491909316911617905561013d565b5f80546001600160a01b038381166001600160a01b0319831681178455604051919092169283917f8be0079c531659141344cd1fd0a4f28419497f9722a3daafe3b4186f6b6457e09190a35050565b80516001600160a01b03811681146100f8575f5ffd5b919050565b5f5f5f6060848603121561010f575f5ffd5b610118846100e2565b9250610126602085016100e2565b9150610134604085016100e2565b90509250925092565b6080516121ac61019b5f395f818161018d01528181610730015281816107c401528181610db501528181610e640152818161137001528181611404015281816118da01528181611b2001528181611bb90152611c5101526121ac5ff3fe608060405234801561000f575f5ffd5b5060043610610153575f3560e01c80637d19e596116100bf578063c6d6c18311610079578063c6d6c18314610383578063c812f3261461038c578063dd4670641461039f578063efa7f38d146103b2578063f0f44260146103bc578063f2fde38b146103cf575f5ffd5b80637d19e5961461025a5780638da5cb5b1461027957806390c4ce5214610289578063ac124081146102a9578063ba0179b51461035d578063c129064d14610370575f5ffd5b80633575ce64116101105780633575ce64146101fc57806340376d561461020657806340e58ee5146102195780635a5aae1e1461022c57806361d027b31461023f578063715018a614610252575f5ffd5b8063041365461461015757806319b05f49146101735780631fccf67214610188578063292f3da5146101c75780632e17de78146101da578063305e9eb7146101ed575b5f5ffd5b6101606107d081565b6040519081526020015b60405180910390f35b610186610181366004611d8a565b6103e2565b005b6101af7f000000000000000000000000000000000000000000000000000000000000000081565b6040516001600160a01b03909116815260200161016a565b6101866101d5366004611d8a565b6104f0565b6101866101e8366004611d8a565b6105e4565b6101606706f05b59d3b2000081565b61016062093a8081565b610160610214366004611da1565b610880565b610186610227366004611d8a565b610c7d565b61018661023a366004611d8a565b610f21565b6001546101af906001600160a01b031681565b610186610fef565b610160610268366004611d8a565b5f9081526004602052604090205490565b5f546001600160a01b03166101af565b61029c610297366004611d8a565b611002565b60405161016a9190611dfe565b6103436102b7366004611d8a565b600360208190525f918252604090912080546001820154600283015493830154600484015460058501546006860154600787015460089097015495976001600160a01b039586169795169593949293919260ff808316936101008404821693620100008104831693630100000082048416936401000000008304811693600160281b909304811692168e565b60405161016a9e9d9c9b9a99989796959493929190611f03565b61018661036b366004611d8a565b611180565b61018661037e366004611d8a565b61150e565b61016060055481565b6002546101af906001600160a01b031681565b6101866103ad366004611d8a565b61173a565b6101606201518081565b6101866103ca366004611fa7565b611a35565b6101866103dd366004611fa7565b611a5f565b5f81815260036020526040812090600882015460ff16600481111561040957610409611dca565b146104535760405162461bcd60e51b81526020600482015260156024820152744e6f7420696e2050524f504f53454420737461746560581b60448201526064015b60405180910390fd5b60028101546001600160a01b031633146104a25760405162461bcd60e51b815260206004820152601060248201526f2737ba103a34329030b1b1b2b83a37b960811b604482015260640161044a565b60088101805460ff1916600117905542600582015560405133815282907fc58a8b337e170bc652e863e267098065a05d49f751e2df4de953cfc52845278d9060200160405180910390a25050565b5f8181526003602052604090206002600882015460ff16600481111561051857610518611dca565b146105355760405162461bcd60e51b815260040161044a90611fc9565b80600701545f0361057e5760405162461bcd60e51b8152602060048201526013602482015272139bc818d85b98d95b081a5b9a5d1a585d1959606a1b604482015260640161044a565b62093a8081600701546105919190612007565b4210156105d65760405162461bcd60e51b8152602060048201526013602482015272151a5b595bdd5d081b9bdd081c995858da1959606a1b604482015260640161044a565b6105e08282611a9c565b5050565b5f8181526003602052604090206002600882015460ff16600481111561060c5761060c611dca565b146106295760405162461bcd60e51b815260040161044a90611fc9565b60018101546001600160a01b0316331480610650575060028101546001600160a01b031633145b61066c5760405162461bcd60e51b815260040161044a90612020565b806004015442106106d15760405162461bcd60e51b815260206004820152602960248201527f4461746520616c7265616479207061737365642c20757365207369676e4d75746044820152681d585b10d85b98d95b60ba1b606482015260840161044a565b60088101805460ff191660049081179091555f8381526020919091526040812054906106fe600283612045565b5f858152600460208190526040808320929092556001860154915163a9059cbb60e01b81529293506001600160a01b037f000000000000000000000000000000000000000000000000000000000000000081169363a9059cbb9361076793921691869101612064565b6020604051808303815f875af1158015610783573d5f5f3e3d5ffd5b505050506040513d601f19601f820116820180604052508101906107a79190612091565b50600283015460405163a9059cbb60e01b81526001600160a01b037f000000000000000000000000000000000000000000000000000000000000000081169263a9059cbb926107ff9291909116908590600401612064565b6020604051808303815f875af115801561081b573d5f5f3e3d5ffd5b505050506040513d601f19601f8201168201806040525081019061083f9190612091565b50837f37375b03d8924bd8f076f11f8411b9962aa5c02fb489021507bc6bb6f850e3653383604051610872929190612064565b60405180910390a250505050565b5f6706f05b59d3b200008310156108d05760405162461bcd60e51b8152602060048201526014602482015273506c656467652062656c6f77206d696e696d756d60601b604482015260640161044a565b42821161091f5760405162461bcd60e51b815260206004820152601a60248201527f44617465206d75737420626520696e2074686520667574757265000000000000604482015260640161044a565b600254604051633d092b3d60e01b8152600481018690525f91829182916001600160a01b031690633d092b3d9060240161012060405180830381865afa15801561096b573d5f5f3e3d5ffd5b505050506040513d601f19601f8201168201806040525081019061098f91906120aa565b50509650505050509250925080156109d85760405162461bcd60e51b815260206004820152600c60248201526b13585d18da08189d5c9b995960a21b604482015260640161044a565b336001600160a01b03841614806109f75750336001600160a01b038316145b610a355760405162461bcd60e51b815260206004820152600f60248201526e4e6f74206d6174636820706172747960881b604482015260640161044a565b5f336001600160a01b03851614610a4c5783610a4e565b825b600580549192505f610a5f83612134565b9091555050600554604080516101c0810182528a81523360208201526001600160a01b0384169181019190915260608101899052608081018890525f60a0820181905260c0820181905260e0820181905261010082018190526101208201819052610140820181905261016082018190526101808201819052919650906101a08201525f868152600360208181526040928390208451815590840151600180830180546001600160a01b039384166001600160a01b03199182161790915594860151600284018054919093169516949094179055606084015191810191909155608083015160048083019190915560a0840151600583015560c084015160068301805460e0870151610100808901516101208a01516101408b01516101608c01511515600160281b0265ff000000000019911515640100000000029190911665ffff000000001992151563010000000263ff0000001994151562010000029490941663ffff00001996151590950261ff00199915159990991661ffff199097169690961797909717939093169190911717161791909117905561018084015160078301556101a084015160088301805493949193909260ff199190911691908490811115610c2f57610c2f611dca565b021790555090505087857f9ce130f5edecab8b5eda6b0406b91e49bd3af67ef6d798e8e4ff9181a1e957f3338a604051610c6a929190612064565b60405180910390a3505050509392505050565b5f81815260036020526040812090600882015460ff166004811115610ca457610ca4611dca565b1480610cc857506001600882015460ff166004811115610cc657610cc6611dca565b145b610d145760405162461bcd60e51b815260206004820152601b60248201527f43616e6e6f742063616e63656c20617420746869732073746167650000000000604482015260640161044a565b60018101546001600160a01b0316331480610d3b575060028101546001600160a01b031633145b610d575760405162461bcd60e51b815260040161044a90612020565b60088101805460ff191660049081179091555f83815260209190915260409020548015610ee1575f83815260046020526040812055600682015460ff1615610e3657600182015460405163a9059cbb60e01b81526001600160a01b037f000000000000000000000000000000000000000000000000000000000000000081169263a9059cbb92610df09291909116908590600401612064565b6020604051808303815f875af1158015610e0c573d5f5f3e3d5ffd5b505050506040513d601f19601f82011682018060405250810190610e309190612091565b50610ee1565b6006820154610100900460ff1615610ee157600282015460405163a9059cbb60e01b81526001600160a01b037f000000000000000000000000000000000000000000000000000000000000000081169263a9059cbb92610e9f9291909116908590600401612064565b6020604051808303815f875af1158015610ebb573d5f5f3e3d5ffd5b505050506040513d601f19601f82011682018060405250810190610edf9190612091565b505b604080515f81526020810183905284917fd3f1d26d5ed365ebca70ce8ab95e0eb15f0388176548bc3a8913ee32baa78339910160405180910390a2505050565b5f8181526003602052604090206001600882015460ff166004811115610f4957610f49611dca565b14610f8e5760405162461bcd60e51b81526020600482015260156024820152744e6f7420696e20414343455054454420737461746560581b604482015260640161044a565b620151808160050154610fa19190612007565b4211610d575760405162461bcd60e51b815260206004820152601860248201527f4c6f636b20646561646c696e65206e6f74207061737365640000000000000000604482015260640161044a565b610ff7611d0f565b6110005f611d3b565b565b611076604080516101c0810182525f80825260208201819052918101829052606081018290526080810182905260a0810182905260c0810182905260e0810182905261010081018290526101208101829052610140810182905261016081018290526101808101829052906101a082015290565b5f8281526003602081815260409283902083516101c0810185528154815260018201546001600160a01b03908116938201939093526002820154909216938201939093529082015460608201526004808301546080830152600583015460a0830152600683015460ff808216151560c08501526101008083048216151560e086015262010000830482161515908501526301000000820481161515610120850152640100000000820481161515610140850152600160281b90910481161515610160840152600784015461018084015260088401549293926101a085019291169081111561116657611166611dca565b600481111561117757611177611dca565b90525092915050565b5f8181526003602052604090206002600882015460ff1660048111156111a8576111a8611dca565b146111c55760405162461bcd60e51b815260040161044a90611fc9565b60018101546001600160a01b03163314806111ec575060028101546001600160a01b031633145b6112085760405162461bcd60e51b815260040161044a90612020565b60018101546001600160a01b03163314806112325760068201546301000000900460ff1615611242565b600682015462010000900460ff16155b6112825760405162461bcd60e51b8152602060048201526011602482015270105b1c9958591e4818dbdb999a5c9b5959607a1b604482015260640161044a565b80156112a05760068201805462ff00001916620100001790556112b6565b60068201805463ff000000191663010000001790555b60405133815283907f0aa625224abe831c446becdc6fc980e2d722be4382b7d95464829344c0b28ea49060200160405180910390a2600682015462010000900460ff168015611310575060068201546301000000900460ff165b156115095760088201805460ff191660031790555f8381526004602052604081205461133e90600290612045565b5f858152600460208190526040808320929092556001860154915163a9059cbb60e01b81529293506001600160a01b037f000000000000000000000000000000000000000000000000000000000000000081169363a9059cbb936113a793921691869101612064565b6020604051808303815f875af11580156113c3573d5f5f3e3d5ffd5b505050506040513d601f19601f820116820180604052508101906113e79190612091565b50600283015460405163a9059cbb60e01b81526001600160a01b037f000000000000000000000000000000000000000000000000000000000000000081169263a9059cbb9261143f9291909116908590600401612064565b6020604051808303815f875af115801561145b573d5f5f3e3d5ffd5b505050506040513d601f19601f8201168201806040525081019061147f9190612091565b506002548354604051635e36dffd60e11b81526001600160a01b039092169163bc6dbffa916114b49160040190815260200190565b5f604051808303815f87803b1580156114cb575f5ffd5b505af19250505080156114dc575060015b5060405184907f4d17cf178ded2e6ad698e49a803d7795cfecb5cc75c6cc2122e33ebd5e88d321905f90a2505b505050565b5f8181526003602052604090206002600882015460ff16600481111561153657611536611dca565b146115535760405162461bcd60e51b815260040161044a90611fc9565b60018101546001600160a01b031633148061157a575060028101546001600160a01b031633145b6115965760405162461bcd60e51b815260040161044a90612020565b80600401544210156116035760405162461bcd60e51b815260206004820152603060248201527f44617465206e6f7420796574207061737365642c2075736520756e7374616b6560448201526f08199bdc88199d5b1b081c99599d5b9960821b606482015260840161044a565b60018101546001600160a01b031633148061162d576006820154600160281b900460ff161561163f565b6006820154640100000000900460ff16155b6116835760405162461bcd60e51b8152602060048201526015602482015274105b1c9958591e481cda59db99590818d85b98d95b605a1b604482015260640161044a565b80156116a55760068201805464ff0000000019166401000000001790556116bd565b60068201805465ff00000000001916600160281b1790555b81600701545f036116cf574260078301555b60405133815283907f1280668f71806345c124c4f3d057384558e5ea366ecea909659d21af98a11ba29060200160405180910390a26006820154640100000000900460ff16801561172b57506006820154600160281b900460ff165b15611509576115098383611a9c565b5f8181526003602052604090206001600882015460ff16600481111561176257611762611dca565b146117a75760405162461bcd60e51b81526020600482015260156024820152744e6f7420696e20414343455054454420737461746560581b604482015260640161044a565b60018101546001600160a01b03163314806117ce575060028101546001600160a01b031633145b6117ea5760405162461bcd60e51b815260040161044a90612020565b6201518081600501546117fd9190612007565b4211156118435760405162461bcd60e51b8152602060048201526014602482015273131bd8dac8191958591b1a5b99481c185cdcd95960621b604482015260640161044a565b60018101546001600160a01b031633148061186b576006820154610100900460ff1615611875565b600682015460ff16155b6118b25760405162461bcd60e51b815260206004820152600e60248201526d105b1c9958591e481b1bd8dad95960921b604482015260640161044a565b60038201546040516323b872dd60e01b815233600482015230602482015260448101919091527f00000000000000000000000000000000000000000000000000000000000000006001600160a01b0316906323b872dd906064016020604051808303815f875af1158015611928573d5f5f3e3d5ffd5b505050506040513d601f19601f8201168201806040525081019061194c9190612091565b5060038201545f848152600460205260408120805490919061196f908490612007565b9091555050801561198e5760068201805460ff191660011790556119a0565b60068201805461ff0019166101001790555b60405133815283907f478feb1d78fd01bcae250672cf6f6aa8302599e417a02ced4b1992a70cc778c19060200160405180910390a2600682015460ff1680156119f257506006820154610100900460ff165b156115095760088201805460ff1916600217905560405183907f80f6b341dd27632fd09493cac69d3949c12f9c2df7d42eb9e2d8472b5dce94b1905f90a2505050565b611a3d611d0f565b600180546001600160a01b0319166001600160a01b0392909216919091179055565b611a67611d0f565b6001600160a01b038116611a9057604051631e4fbdf760e01b81525f600482015260240161044a565b611a9981611d3b565b50565b60088101805460ff191660049081179091555f838152602091909152604081205490612710611acd6107d08461214c565b611ad79190612045565b90505f6002611ae68385612163565b611af09190612045565b5f8681526004602052604081205590508115611b9d5760015460405163a9059cbb60e01b81526001600160a01b037f000000000000000000000000000000000000000000000000000000000000000081169263a9059cbb92611b5b9291909116908690600401612064565b6020604051808303815f875af1158015611b77573d5f5f3e3d5ffd5b505050506040513d601f19601f82011682018060405250810190611b9b9190612091565b505b600184015460405163a9059cbb60e01b81526001600160a01b037f000000000000000000000000000000000000000000000000000000000000000081169263a9059cbb92611bf49291909116908590600401612064565b6020604051808303815f875af1158015611c10573d5f5f3e3d5ffd5b505050506040513d601f19601f82011682018060405250810190611c349190612091565b50600284015460405163a9059cbb60e01b81526001600160a01b037f000000000000000000000000000000000000000000000000000000000000000081169263a9059cbb92611c8c9291909116908590600401612064565b6020604051808303815f875af1158015611ca8573d5f5f3e3d5ffd5b505050506040513d601f19601f82011682018060405250810190611ccc9190612091565b50604080518381526020810183905286917fd3f1d26d5ed365ebca70ce8ab95e0eb15f0388176548bc3a8913ee32baa78339910160405180910390a25050505050565b5f546001600160a01b031633146110005760405163118cdaa760e01b815233600482015260240161044a565b5f80546001600160a01b038381166001600160a01b0319831681178455604051919092169283917f8be0079c531659141344cd1fd0a4f28419497f9722a3daafe3b4186f6b6457e09190a35050565b5f60208284031215611d9a575f5ffd5b5035919050565b5f5f5f60608486031215611db3575f5ffd5b505081359360208301359350604090920135919050565b634e487b7160e01b5f52602160045260245ffd5b60058110611dfa57634e487b7160e01b5f52602160045260245ffd5b9052565b815181526020808301516101c0830191611e22908401826001600160a01b03169052565b506040830151611e3d60408401826001600160a01b03169052565b50606083015160608301526080830151608083015260a083015160a083015260c0830151611e6f60c084018215159052565b5060e0830151611e8360e084018215159052565b50610100830151611e9961010084018215159052565b50610120830151611eaf61012084018215159052565b50610140830151611ec561014084018215159052565b50610160830151611edb61016084018215159052565b506101808301516101808301526101a0830151611efc6101a0840182611dde565b5092915050565b8e81526001600160a01b038e811660208301528d166040820152606081018c9052608081018b905260a081018a905288151560c08201526101c0810188151560e083015287151561010083015286151561012083015285151561014083015284151561016083015283610180830152611f806101a0830184611dde565b9f9e505050505050505050505050505050565b6001600160a01b0381168114611a99575f5ffd5b5f60208284031215611fb7575f5ffd5b8135611fc281611f93565b9392505050565b60208082526010908201526f139bdd08199d5b1b1e481b1bd8dad95960821b604082015260600190565b634e487b7160e01b5f52601160045260245ffd5b8082018082111561201a5761201a611ff3565b92915050565b6020808252600b908201526a4e6f74206120706172747960a81b604082015260600190565b5f8261205f57634e487b7160e01b5f52601260045260245ffd5b500490565b6001600160a01b03929092168252602082015260400190565b8051801515811461208c575f5ffd5b919050565b5f602082840312156120a1575f5ffd5b611fc28261207d565b5f5f5f5f5f5f5f5f5f6101208a8c0312156120c3575f5ffd5b89516120ce81611f93565b60208b01519099506120df81611f93565b60408b015160608c015160808d0151929a509098509650945061210460a08b0161207d565b935061211260c08b0161207d565b60e08b0151610100909b0151999c989b50969995989497939695949392505050565b5f6001820161214557612145611ff3565b5060010190565b808202811582820484141761201a5761201a611ff3565b8181038181111561201a5761201a611ff356fea26469706673582212208e0dcfae5276745c59ad6a81a2b158a27427dcf2337319727393986610154f7064736f6c634300081c0033",
          "opcodes": "PUSH1 0xA0 PUSH1 0x40 MSTORE CALLVALUE DUP1 ISZERO PUSH2 0xF JUMPI PUSH0 PUSH0 REVERT JUMPDEST POP PUSH1 0x40 MLOAD PUSH2 0x2347 CODESIZE SUB DUP1 PUSH2 0x2347 DUP4 CODECOPY DUP2 ADD PUSH1 0x40 DUP2 SWAP1 MSTORE PUSH2 0x2E SWAP2 PUSH2 0xFD JUMP JUMPDEST CALLER DUP1 PUSH2 0x53 JUMPI PUSH1 0x40 MLOAD PUSH4 0x1E4FBDF7 PUSH1 0xE0 SHL DUP2 MSTORE PUSH0 PUSH1 0x4 DUP3 ADD MSTORE PUSH1 0x24 ADD PUSH1 0x40 MLOAD DUP1 SWAP2 SUB SWAP1 REVERT JUMPDEST PUSH2 0x5C DUP2 PUSH2 0x93 JUMP JUMPDEST POP PUSH1 0x1 PUSH1 0x1 PUSH1 0xA0 SHL SUB SWAP3 DUP4 AND PUSH1 0x80 MSTORE PUSH1 0x1 DUP1 SLOAD SWAP3 DUP5 AND PUSH1 0x1 PUSH1 0x1 PUSH1 0xA0 SHL SUB NOT SWAP4 DUP5 AND OR SWAP1 SSTORE PUSH1 0x2 DUP1 SLOAD SWAP2 SWAP1 SWAP4 AND SWAP2 AND OR SWAP1 SSTORE PUSH2 0x13D JUMP JUMPDEST PUSH0 DUP1 SLOAD PUSH1 0x1 PUSH1 0x1 PUSH1 0xA0 SHL SUB DUP4 DUP2 AND PUSH1 0x1 PUSH1 0x1 PUSH1 0xA0 SHL SUB NOT DUP4 AND DUP2 OR DUP5 SSTORE PUSH1 0x40 MLOAD SWAP2 SWAP1 SWAP3 AND SWAP3 DUP4 SWAP2 PUSH32 0x8BE0079C531659141344CD1FD0A4F28419497F9722A3DAAFE3B4186F6B6457E0 SWAP2 SWAP1 LOG3 POP POP JUMP JUMPDEST DUP1 MLOAD PUSH1 0x1 PUSH1 0x1 PUSH1 0xA0 SHL SUB DUP2 AND DUP2 EQ PUSH2 0xF8 JUMPI PUSH0 PUSH0 REVERT JUMPDEST SWAP2 SWAP1 POP JUMP JUMPDEST PUSH0 PUSH0 PUSH0 PUSH1 0x60 DUP5 DUP7 SUB SLT ISZERO PUSH2 0x10F JUMPI PUSH0 PUSH0 REVERT JUMPDEST PUSH2 0x118 DUP5 PUSH2 0xE2 JUMP JUMPDEST SWAP3 POP PUSH2 0x126 PUSH1 0x20 DUP6 ADD PUSH2 0xE2 JUMP JUMPDEST SWAP2 POP PUSH2 0x134 PUSH1 0x40 DUP6 ADD PUSH2 0xE2 JUMP JUMPDEST SWAP1 POP SWAP3 POP SWAP3 POP SWAP3 JUMP JUMPDEST PUSH1 0x80 MLOAD PUSH2 0x21AC PUSH2 0x19B PUSH0 CODECOPY PUSH0 DUP2 DUP2 PUSH2 0x18D ADD MSTORE DUP2 DUP2 PUSH2 0x730 ADD MSTORE DUP2 DUP2 PUSH2 0x7C4 ADD MSTORE DUP2 DUP2 PUSH2 0xDB5 ADD MSTORE DUP2 DUP2 PUSH2 0xE64 ADD MSTORE DUP2 DUP2 PUSH2 0x1370 ADD MSTORE DUP2 DUP2 PUSH2 0x1404 ADD MSTORE DUP2 DUP2 PUSH2 0x18DA ADD MSTORE DUP2 DUP2 PUSH2 0x1B20 ADD MSTORE DUP2 DUP2 PUSH2 0x1BB9 ADD MSTORE PUSH2 0x1C51 ADD MSTORE PUSH2 0x21AC PUSH0 RETURN INVALID PUSH1 0x80 PUSH1 0x40 MSTORE CALLVALUE DUP1 ISZERO PUSH2 0xF JUMPI PUSH0 PUSH0 REVERT JUMPDEST POP PUSH1 0x4 CALLDATASIZE LT PUSH2 0x153 JUMPI PUSH0 CALLDATALOAD PUSH1 0xE0 SHR DUP1 PUSH4 0x7D19E596 GT PUSH2 0xBF JUMPI DUP1 PUSH4 0xC6D6C183 GT PUSH2 0x79 JUMPI DUP1 PUSH4 0xC6D6C183 EQ PUSH2 0x383 JUMPI DUP1 PUSH4 0xC812F326 EQ PUSH2 0x38C JUMPI DUP1 PUSH4 0xDD467064 EQ PUSH2 0x39F JUMPI DUP1 PUSH4 0xEFA7F38D EQ PUSH2 0x3B2 JUMPI DUP1 PUSH4 0xF0F44260 EQ PUSH2 0x3BC JUMPI DUP1 PUSH4 0xF2FDE38B EQ PUSH2 0x3CF JUMPI PUSH0 PUSH0 REVERT JUMPDEST DUP1 PUSH4 0x7D19E596 EQ PUSH2 0x25A JUMPI DUP1 PUSH4 0x8DA5CB5B EQ PUSH2 0x279 JUMPI DUP1 PUSH4 0x90C4CE52 EQ PUSH2 0x289 JUMPI DUP1 PUSH4 0xAC124081 EQ PUSH2 0x2A9 JUMPI DUP1 PUSH4 0xBA0179B5 EQ PUSH2 0x35D JUMPI DUP1 PUSH4 0xC129064D EQ PUSH2 0x370 JUMPI PUSH0 PUSH0 REVERT JUMPDEST DUP1 PUSH4 0x3575CE64 GT PUSH2 0x110 JUMPI DUP1 PUSH4 0x3575CE64 EQ PUSH2 0x1FC JUMPI DUP1 PUSH4 0x40376D56 EQ PUSH2 0x206 JUMPI DUP1 PUSH4 0x40E58EE5 EQ PUSH2 0x219 JUMPI DUP1 PUSH4 0x5A5AAE1E EQ PUSH2 0x22C JUMPI DUP1 PUSH4 0x61D027B3 EQ PUSH2 0x23F JUMPI DUP1 PUSH4 0x715018A6 EQ PUSH2 0x252 JUMPI PUSH0 PUSH0 REVERT JUMPDEST DUP1 PUSH4 0x4136546 EQ PUSH2 0x157 JUMPI DUP1 PUSH4 0x19B05F49 EQ PUSH2 0x173 JUMPI DUP1 PUSH4 0x1FCCF672 EQ PUSH2 0x188 JUMPI DUP1 PUSH4 0x292F3DA5 EQ PUSH2 0x1C7 JUMPI DUP1 PUSH4 0x2E17DE78 EQ PUSH2 0x1DA JUMPI DUP1 PUSH4 0x305E9EB7 EQ PUSH2 0x1ED JUMPI JUMPDEST PUSH0 PUSH0 REVERT JUMPDEST PUSH2 0x160 PUSH2 0x7D0 DUP2 JUMP JUMPDEST PUSH1 0x40 MLOAD SWAP1 DUP2 MSTORE PUSH1 0x20 ADD JUMPDEST PUSH1 0x40 MLOAD DUP1 SWAP2 SUB SWAP1 RETURN JUMPDEST PUSH2 0x186 PUSH2 0x181 CALLDATASIZE PUSH1 0x4 PUSH2 0x1D8A JUMP JUMPDEST PUSH2 0x3E2 JUMP JUMPDEST STOP JUMPDEST PUSH2 0x1AF PUSH32 0x0 DUP2 JUMP JUMPDEST PUSH1 0x40 MLOAD PUSH1 0x1 PUSH1 0x1 PUSH1 0xA0 SHL SUB SWAP1 SWAP2 AND DUP2 MSTORE PUSH1 0x20 ADD PUSH2 0x16A JUMP JUMPDEST PUSH2 0x186 PUSH2 0x1D5 CALLDATASIZE PUSH1 0x4 PUSH2 0x1D8A JUMP JUMPDEST PUSH2 0x4F0 JUMP JUMPDEST PUSH2 0x186 PUSH2 0x1E8 CALLDATASIZE PUSH1 0x4 PUSH2 0x1D8A JUMP JUMPDEST PUSH2 0x5E4 JUMP JUMPDEST PUSH2 0x160 PUSH8 0x6F05B59D3B20000 DUP2 JUMP JUMPDEST PUSH2 0x160 PUSH3 0x93A80 DUP2 JUMP JUMPDEST PUSH2 0x160 PUSH2 0x214 CALLDATASIZE PUSH1 0x4 PUSH2 0x1DA1 JUMP JUMPDEST PUSH2 0x880 JUMP JUMPDEST PUSH2 0x186 PUSH2 0x227 CALLDATASIZE PUSH1 0x4 PUSH2 0x1D8A JUMP JUMPDEST PUSH2 0xC7D JUMP JUMPDEST PUSH2 0x186 PUSH2 0x23A CALLDATASIZE PUSH1 0x4 PUSH2 0x1D8A JUMP JUMPDEST PUSH2 0xF21 JUMP JUMPDEST PUSH1 0x1 SLOAD PUSH2 0x1AF SWAP1 PUSH1 0x1 PUSH1 0x1 PUSH1 0xA0 SHL SUB AND DUP2 JUMP JUMPDEST PUSH2 0x186 PUSH2 0xFEF JUMP JUMPDEST PUSH2 0x160 PUSH2 0x268 CALLDATASIZE PUSH1 0x4 PUSH2 0x1D8A JUMP JUMPDEST PUSH0 SWAP1 DUP2 MSTORE PUSH1 0x4 PUSH1 0x20 MSTORE PUSH1 0x40 SWAP1 KECCAK256 SLOAD SWAP1 JUMP JUMPDEST PUSH0 SLOAD PUSH1 0x1 PUSH1 0x1 PUSH1 0xA0 SHL SUB AND PUSH2 0x1AF JUMP JUMPDEST PUSH2 0x29C PUSH2 0x297 CALLDATASIZE PUSH1 0x4 PUSH2 0x1D8A JUMP JUMPDEST PUSH2 0x1002 JUMP JUMPDEST PUSH1 0x40 MLOAD PUSH2 0x16A SWAP2 SWAP1 PUSH2 0x1DFE JUMP JUMPDEST PUSH2 0x343 PUSH2 0x2B7 CALLDATASIZE PUSH1 0x4 PUSH2 0x1D8A JUMP JUMPDEST PUSH1 0x3 PUSH1 0x20 DUP2 SWAP1 MSTORE PUSH0 SWAP2 DUP3 MSTORE PUSH1 0x40 SWAP1 SWAP2 KECCAK256 DUP1 SLOAD PUSH1 0x1 DUP3 ADD SLOAD PUSH1 0x2 DUP4 ADD SLOAD SWAP4 DUP4 ADD SLOAD PUSH1 0x4 DUP5 ADD SLOAD PUSH1 0x5 DUP6 ADD SLOAD PUSH1 0x6 DUP7 ADD SLOAD PUSH1 0x7 DUP8 ADD SLOAD PUSH1 0x8 SWAP1 SWAP8 ADD SLOAD SWAP6 SWAP8 PUSH1 0x1 PUSH1 0x1 PUSH1 0xA0 SHL SUB SWAP6 DUP7 AND SWAP8 SWAP6 AND SWAP6 SWAP4 SWAP5 SWAP3 SWAP4 SWAP2 SWAP3 PUSH1 0xFF DUP1 DUP4 AND SWAP4 PUSH2 0x100 DUP5 DIV DUP3 AND SWAP4 PUSH3 0x10000 DUP2 DIV DUP4 AND SWAP4 PUSH4 0x1000000 DUP3 DIV DUP5 AND SWAP4 PUSH5 0x100000000 DUP4 DIV DUP2 AND SWAP4 PUSH1 0x1 PUSH1 0x28 SHL SWAP1 SWAP4 DIV DUP2 AND SWAP3 AND DUP15 JUMP JUMPDEST PUSH1 0x40 MLOAD PUSH2 0x16A SWAP15 SWAP14 SWAP13 SWAP12 SWAP11 SWAP10 SWAP9 SWAP8 SWAP7 SWAP6 SWAP5 SWAP4 SWAP3 SWAP2 SWAP1 PUSH2 0x1F03 JUMP JUMPDEST PUSH2 0x186 PUSH2 0x36B CALLDATASIZE PUSH1 0x4 PUSH2 0x1D8A JUMP JUMPDEST PUSH2 0x1180 JUMP JUMPDEST PUSH2 0x186 PUSH2 0x37E CALLDATASIZE PUSH1 0x4 PUSH2 0x1D8A JUMP JUMPDEST PUSH2 0x150E JUMP JUMPDEST PUSH2 0x160 PUSH1 0x5 SLOAD DUP2 JUMP JUMPDEST PUSH1 0x2 SLOAD PUSH2 0x1AF SWAP1 PUSH1 0x1 PUSH1 0x1 PUSH1 0xA0 SHL SUB AND DUP2 JUMP JUMPDEST PUSH2 0x186 PUSH2 0x3AD CALLDATASIZE PUSH1 0x4 PUSH2 0x1D8A JUMP JUMPDEST PUSH2 0x173A JUMP JUMPDEST PUSH2 0x160 PUSH3 0x15180 DUP2 JUMP JUMPDEST PUSH2 0x186 PUSH2 0x3CA CALLDATASIZE PUSH1 0x4 PUSH2 0x1FA7 JUMP JUMPDEST PUSH2 0x1A35 JUMP JUMPDEST PUSH2 0x186 PUSH2 0x3DD CALLDATASIZE PUSH1 0x4 PUSH2 0x1FA7 JUMP JUMPDEST PUSH2 0x1A5F JUMP JUMPDEST PUSH0 DUP2 DUP2 MSTORE PUSH1 0x3 PUSH1 0x20 MSTORE PUSH1 0x40 DUP2 KECCAK256 SWAP1 PUSH1 0x8 DUP3 ADD SLOAD PUSH1 0xFF AND PUSH1 0x4 DUP2 GT ISZERO PUSH2 0x409 JUMPI PUSH2 0x409 PUSH2 0x1DCA JUMP JUMPDEST EQ PUSH2 0x453 JUMPI PUSH1 0x40 MLOAD PUSH3 0x461BCD PUSH1 0xE5 SHL DUP2 MSTORE PUSH1 0x20 PUSH1 0x4 DUP3 ADD MSTORE PUSH1 0x15 PUSH1 0x24 DUP3 ADD MSTORE PUSH21 0x4E6F7420696E2050524F504F534544207374617465 PUSH1 0x58 SHL PUSH1 0x44 DUP3 ADD MSTORE PUSH1 0x64 ADD JUMPDEST PUSH1 0x40 MLOAD DUP1 SWAP2 SUB SWAP1 REVERT JUMPDEST PUSH1 0x2 DUP2 ADD SLOAD PUSH1 0x1 PUSH1 0x1 PUSH1 0xA0 SHL SUB AND CALLER EQ PUSH2 0x4A2 JUMPI PUSH1 0x40 MLOAD PUSH3 0x461BCD PUSH1 0xE5 SHL DUP2 MSTORE PUSH1 0x20 PUSH1 0x4 DUP3 ADD MSTORE PUSH1 0x10 PUSH1 0x24 DUP3 ADD MSTORE PUSH16 0x2737BA103A34329030B1B1B2B83A37B9 PUSH1 0x81 SHL PUSH1 0x44 DUP3 ADD MSTORE PUSH1 0x64 ADD PUSH2 0x44A JUMP JUMPDEST PUSH1 0x8 DUP2 ADD DUP1 SLOAD PUSH1 0xFF NOT AND PUSH1 0x1 OR SWAP1 SSTORE TIMESTAMP PUSH1 0x5 DUP3 ADD SSTORE PUSH1 0x40 MLOAD CALLER DUP2 MSTORE DUP3 SWAP1 PUSH32 0xC58A8B337E170BC652E863E267098065A05D49F751E2DF4DE953CFC52845278D SWAP1 PUSH1 0x20 ADD PUSH1 0x40 MLOAD DUP1 SWAP2 SUB SWAP1 LOG2 POP POP JUMP JUMPDEST PUSH0 DUP2 DUP2 MSTORE PUSH1 0x3 PUSH1 0x20 MSTORE PUSH1 0x40 SWAP1 KECCAK256 PUSH1 0x2 PUSH1 0x8 DUP3 ADD SLOAD PUSH1 0xFF AND PUSH1 0x4 DUP2 GT ISZERO PUSH2 0x518 JUMPI PUSH2 0x518 PUSH2 0x1DCA JUMP JUMPDEST EQ PUSH2 0x535 JUMPI PUSH1 0x40 MLOAD PUSH3 0x461BCD PUSH1 0xE5 SHL DUP2 MSTORE PUSH1 0x4 ADD PUSH2 0x44A SWAP1 PUSH2 0x1FC9 JUMP JUMPDEST DUP1 PUSH1 0x7 ADD SLOAD PUSH0 SUB PUSH2 0x57E JUMPI PUSH1 0x40 MLOAD PUSH3 0x461BCD PUSH1 0xE5 SHL DUP2 MSTORE PUSH1 0x20 PUSH1 0x4 DUP3 ADD MSTORE PUSH1 0x13 PUSH1 0x24 DUP3 ADD MSTORE PUSH19 0x139BC818D85B98D95B081A5B9A5D1A585D1959 PUSH1 0x6A SHL PUSH1 0x44 DUP3 ADD MSTORE PUSH1 0x64 ADD PUSH2 0x44A JUMP JUMPDEST PUSH3 0x93A80 DUP2 PUSH1 0x7 ADD SLOAD PUSH2 0x591 SWAP2 SWAP1 PUSH2 0x2007 JUMP JUMPDEST TIMESTAMP LT ISZERO PUSH2 0x5D6 JUMPI PUSH1 0x40 MLOAD PUSH3 0x461BCD PUSH1 0xE5 SHL DUP2 MSTORE PUSH1 0x20 PUSH1 0x4 DUP3 ADD MSTORE PUSH1 0x13 PUSH1 0x24 DUP3 ADD MSTORE PUSH19 0x151A5B595BDD5D081B9BDD081C995858DA1959 PUSH1 0x6A SHL PUSH1 0x44 DUP3 ADD MSTORE PUSH1 0x64 ADD PUSH2 0x44A JUMP JUMPDEST PUSH2 0x5E0 DUP3 DUP3 PUSH2 0x1A9C JUMP JUMPDEST POP POP JUMP JUMPDEST PUSH0 DUP2 DUP2 MSTORE PUSH1 0x3 PUSH1 0x20 MSTORE PUSH1 0x40 SWAP1 KECCAK256 PUSH1 0x2 PUSH1 0x8 DUP3 ADD SLOAD PUSH1 0xFF AND PUSH1 0x4 DUP2 GT ISZERO PUSH2 0x60C JUMPI PUSH2 0x60C PUSH2 0x1DCA JUMP JUMPDEST EQ PUSH2 0x629 JUMPI PUSH1 0x40 MLOAD PUSH3 0x461BCD PUSH1 0xE5 SHL DUP2 MSTORE PUSH1 0x4 ADD PUSH2 0x44A SWAP1 PUSH2 0x1FC9 JUMP JUMPDEST PUSH1 0x1 DUP2 ADD SLOAD PUSH1 0x1 PUSH1 0x1 PUSH1 0xA0 SHL SUB AND CALLER EQ DUP1 PUSH2 0x650 JUMPI POP PUSH1 0x2 DUP2 ADD SLOAD PUSH1 0x1 PUSH1 0x1 PUSH1 0xA0 SHL SUB AND CALLER EQ JUMPDEST PUSH2 0x66C JUMPI PUSH1 0x40 MLOAD PUSH3 0x461BCD PUSH1 0xE5 SHL DUP2 MSTORE PUSH1 0x4 ADD PUSH2 0x44A SWAP1 PUSH2 0x2020 JUMP JUMPDEST DUP1 PUSH1 0x4 ADD SLOAD TIMESTAMP LT PUSH2 0x6D1 JUMPI PUSH1 0x40 MLOAD PUSH3 0x461BCD PUSH1 0xE5 SHL DUP2 MSTORE PUSH1 0x20 PUSH1 0x4 DUP3 ADD MSTORE PUSH1 0x29 PUSH1 0x24 DUP3 ADD MSTORE PUSH32 0x4461746520616C7265616479207061737365642C20757365207369676E4D7574 PUSH1 0x44 DUP3 ADD MSTORE PUSH9 0x1D585B10D85B98D95B PUSH1 0xBA SHL PUSH1 0x64 DUP3 ADD MSTORE PUSH1 0x84 ADD PUSH2 0x44A JUMP JUMPDEST PUSH1 0x8 DUP2 ADD DUP1 SLOAD PUSH1 0xFF NOT AND PUSH1 0x4 SWAP1 DUP2 OR SWAP1 SWAP2 SSTORE PUSH0 DUP4 DUP2 MSTORE PUSH1 0x20 SWAP2 SWAP1 SWAP2 MSTORE PUSH1 0x40 DUP2 KECCAK256 SLOAD SWAP1 PUSH2 0x6FE PUSH1 0x2 DUP4 PUSH2 0x2045 JUMP JUMPDEST PUSH0 DUP6 DUP2 MSTORE PUSH1 0x4 PUSH1 0x20 DUP2 SWAP1 MSTORE PUSH1 0x40 DUP1 DUP4 KECCAK256 SWAP3 SWAP1 SWAP3 SSTORE PUSH1 0x1 DUP7 ADD SLOAD SWAP2 MLOAD PUSH4 0xA9059CBB PUSH1 0xE0 SHL DUP2 MSTORE SWAP3 SWAP4 POP PUSH1 0x1 PUSH1 0x1 PUSH1 0xA0 SHL SUB PUSH32 0x0 DUP2 AND SWAP4 PUSH4 0xA9059CBB SWAP4 PUSH2 0x767 SWAP4 SWAP3 AND SWAP2 DUP7 SWAP2 ADD PUSH2 0x2064 JUMP JUMPDEST PUSH1 0x20 PUSH1 0x40 MLOAD DUP1 DUP4 SUB DUP2 PUSH0 DUP8 GAS CALL ISZERO DUP1 ISZERO PUSH2 0x783 JUMPI RETURNDATASIZE PUSH0 PUSH0 RETURNDATACOPY RETURNDATASIZE PUSH0 REVERT JUMPDEST POP POP POP POP PUSH1 0x40 MLOAD RETURNDATASIZE PUSH1 0x1F NOT PUSH1 0x1F DUP3 ADD AND DUP3 ADD DUP1 PUSH1 0x40 MSTORE POP DUP2 ADD SWAP1 PUSH2 0x7A7 SWAP2 SWAP1 PUSH2 0x2091 JUMP JUMPDEST POP PUSH1 0x2 DUP4 ADD SLOAD PUSH1 0x40 MLOAD PUSH4 0xA9059CBB PUSH1 0xE0 SHL DUP2 MSTORE PUSH1 0x1 PUSH1 0x1 PUSH1 0xA0 SHL SUB PUSH32 0x0 DUP2 AND SWAP3 PUSH4 0xA9059CBB SWAP3 PUSH2 0x7FF SWAP3 SWAP2 SWAP1 SWAP2 AND SWAP1 DUP6 SWAP1 PUSH1 0x4 ADD PUSH2 0x2064 JUMP JUMPDEST PUSH1 0x20 PUSH1 0x40 MLOAD DUP1 DUP4 SUB DUP2 PUSH0 DUP8 GAS CALL ISZERO DUP1 ISZERO PUSH2 0x81B JUMPI RETURNDATASIZE PUSH0 PUSH0 RETURNDATACOPY RETURNDATASIZE PUSH0 REVERT JUMPDEST POP POP POP POP PUSH1 0x40 MLOAD RETURNDATASIZE PUSH1 0x1F NOT PUSH1 0x1F DUP3 ADD AND DUP3 ADD DUP1 PUSH1 0x40 MSTORE POP DUP2 ADD SWAP1 PUSH2 0x83F SWAP2 SWAP1 PUSH2 0x2091 JUMP JUMPDEST POP DUP4 PUSH32 0x37375B03D8924BD8F076F11F8411B9962AA5C02FB489021507BC6BB6F850E365 CALLER DUP4 PUSH1 0x40 MLOAD PUSH2 0x872 SWAP3 SWAP2 SWAP1 PUSH2 0x2064 JUMP JUMPDEST PUSH1 0x40 MLOAD DUP1 SWAP2 SUB SWAP1 LOG2 POP POP POP POP JUMP JUMPDEST PUSH0 PUSH8 0x6F05B59D3B20000 DUP4 LT ISZERO PUSH2 0x8D0 JUMPI PUSH1 0x40 MLOAD PUSH3 0x461BCD PUSH1 0xE5 SHL DUP2 MSTORE PUSH1 0x20 PUSH1 0x4 DUP3 ADD MSTORE PUSH1 0x14 PUSH1 0x24 DUP3 ADD MSTORE PUSH20 0x506C656467652062656C6F77206D696E696D756D PUSH1 0x60 SHL PUSH1 0x44 DUP3 ADD MSTORE PUSH1 0x64 ADD PUSH2 0x44A JUMP JUMPDEST TIMESTAMP DUP3 GT PUSH2 0x91F JUMPI PUSH1 0x40 MLOAD PUSH3 0x461BCD PUSH1 0xE5 SHL DUP2 MSTORE PUSH1 0x20 PUSH1 0x4 DUP3 ADD MSTORE PUSH1 0x1A PUSH1 0x24 DUP3 ADD MSTORE PUSH32 0x44617465206D75737420626520696E2074686520667574757265000000000000 PUSH1 0x44 DUP3 ADD MSTORE PUSH1 0x64 ADD PUSH2 0x44A JUMP JUMPDEST PUSH1 0x2 SLOAD PUSH1 0x40 MLOAD PUSH4 0x3D092B3D PUSH1 0xE0 SHL DUP2 MSTORE PUSH1 0x4 DUP2 ADD DUP7 SWAP1 MSTORE PUSH0 SWAP2 DUP3 SWAP2 DUP3 SWAP2 PUSH1 0x1 PUSH1 0x1 PUSH1 0xA0 SHL SUB AND SWAP1 PUSH4 0x3D092B3D SWAP1 PUSH1 0x24 ADD PUSH2 0x120 PUSH1 0x40 MLOAD DUP1 DUP4 SUB DUP2 DUP7 GAS STATICCALL ISZERO DUP1 ISZERO PUSH2 0x96B JUMPI RETURNDATASIZE PUSH0 PUSH0 RETURNDATACOPY RETURNDATASIZE PUSH0 REVERT JUMPDEST POP POP POP POP PUSH1 0x40 MLOAD RETURNDATASIZE PUSH1 0x1F NOT PUSH1 0x1F DUP3 ADD AND DUP3 ADD DUP1 PUSH1 0x40 MSTORE POP DUP2 ADD SWAP1 PUSH2 0x98F SWAP2 SWAP1 PUSH2 0x20AA JUMP JUMPDEST POP POP SWAP7 POP POP POP POP POP SWAP3 POP SWAP3 POP DUP1 ISZERO PUSH2 0x9D8 JUMPI PUSH1 0x40 MLOAD PUSH3 0x461BCD PUSH1 0xE5 SHL DUP2 MSTORE PUSH1 0x20 PUSH1 0x4 DUP3 ADD MSTORE PUSH1 0xC PUSH1 0x24 DUP3 ADD MSTORE PUSH12 0x13585D18DA08189D5C9B9959 PUSH1 0xA2 SHL PUSH1 0x44 DUP3 ADD MSTORE PUSH1 0x64 ADD PUSH2 0x44A JUMP JUMPDEST CALLER PUSH1 0x1 PUSH1 0x1 PUSH1 0xA0 SHL SUB DUP5 AND EQ DUP1 PUSH2 0x9F7 JUMPI POP CALLER PUSH1 0x1 PUSH1 0x1 PUSH1 0xA0 SHL SUB DUP4 AND EQ JUMPDEST PUSH2 0xA35 JUMPI PUSH1 0x40 MLOAD PUSH3 0x461BCD PUSH1 0xE5 SHL DUP2 MSTORE PUSH1 0x20 PUSH1 0x4 DUP3 ADD MSTORE PUSH1 0xF PUSH1 0x24 DUP3 ADD MSTORE PUSH15 0x4E6F74206D61746368207061727479 PUSH1 0x88 SHL PUSH1 0x44 DUP3 ADD MSTORE PUSH1 0x64 ADD PUSH2 0x44A JUMP JUMPDEST PUSH0 CALLER PUSH1 0x1 PUSH1 0x1 PUSH1 0xA0 SHL SUB DUP6 AND EQ PUSH2 0xA4C JUMPI DUP4 PUSH2 0xA4E JUMP JUMPDEST DUP3 JUMPDEST PUSH1 0x5 DUP1 SLOAD SWAP2 SWAP3 POP PUSH0 PUSH2 0xA5F DUP4 PUSH2 0x2134 JUMP JUMPDEST SWAP1 SWAP2 SSTORE POP POP PUSH1 0x5 SLOAD PUSH1 0x40 DUP1 MLOAD PUSH2 0x1C0 DUP2 ADD DUP3 MSTORE DUP11 DUP2 MSTORE CALLER PUSH1 0x20 DUP3 ADD MSTORE PUSH1 0x1 PUSH1 0x1 PUSH1 0xA0 SHL SUB DUP5 AND SWAP2 DUP2 ADD SWAP2 SWAP1 SWAP2 MSTORE PUSH1 0x60 DUP2 ADD DUP10 SWAP1 MSTORE PUSH1 0x80 DUP2 ADD DUP9 SWAP1 MSTORE PUSH0 PUSH1 0xA0 DUP3 ADD DUP2 SWAP1 MSTORE PUSH1 0xC0 DUP3 ADD DUP2 SWAP1 MSTORE PUSH1 0xE0 DUP3 ADD DUP2 SWAP1 MSTORE PUSH2 0x100 DUP3 ADD DUP2 SWAP1 MSTORE PUSH2 0x120 DUP3 ADD DUP2 SWAP1 MSTORE PUSH2 0x140 DUP3 ADD DUP2 SWAP1 MSTORE PUSH2 0x160 DUP3 ADD DUP2 SWAP1 MSTORE PUSH2 0x180 DUP3 ADD DUP2 SWAP1 MSTORE SWAP2 SWAP7 POP SWAP1 PUSH2 0x1A0 DUP3 ADD MSTORE PUSH0 DUP7 DUP2 MSTORE PUSH1 0x3 PUSH1 0x20 DUP2 DUP2 MSTORE PUSH1 0x40 SWAP3 DUP4 SWAP1 KECCAK256 DUP5 MLOAD DUP2 SSTORE SWAP1 DUP5 ADD MLOAD PUSH1 0x1 DUP1 DUP4 ADD DUP1 SLOAD PUSH1 0x1 PUSH1 0x1 PUSH1 0xA0 SHL SUB SWAP4 DUP5 AND PUSH1 0x1 PUSH1 0x1 PUSH1 0xA0 SHL SUB NOT SWAP2 DUP3 AND OR SWAP1 SWAP2 SSTORE SWAP5 DUP7 ADD MLOAD PUSH1 0x2 DUP5 ADD DUP1 SLOAD SWAP2 SWAP1 SWAP4 AND SWAP6 AND SWAP5 SWAP1 SWAP5 OR SWAP1 SSTORE PUSH1 0x60 DUP5 ADD MLOAD SWAP2 DUP2 ADD SWAP2 SWAP1 SWAP2 SSTORE PUSH1 0x80 DUP4 ADD MLOAD PUSH1 0x4 DUP1 DUP4 ADD SWAP2 SWAP1 SWAP2 SSTORE PUSH1 0xA0 DUP5 ADD MLOAD PUSH1 0x5 DUP4 ADD SSTORE PUSH1 0xC0 DUP5 ADD MLOAD PUSH1 0x6 DUP4 ADD DUP1 SLOAD PUSH1 0xE0 DUP8 ADD MLOAD PUSH2 0x100 DUP1 DUP10 ADD MLOAD PUSH2 0x120 DUP11 ADD MLOAD PUSH2 0x140 DUP12 ADD MLOAD PUSH2 0x160 DUP13 ADD MLOAD ISZERO ISZERO PUSH1 0x1 PUSH1 0x28 SHL MUL PUSH6 0xFF0000000000 NOT SWAP2 ISZERO ISZERO PUSH5 0x100000000 MUL SWAP2 SWAP1 SWAP2 AND PUSH6 0xFFFF00000000 NOT SWAP3 ISZERO ISZERO PUSH4 0x1000000 MUL PUSH4 0xFF000000 NOT SWAP5 ISZERO ISZERO PUSH3 0x10000 MUL SWAP5 SWAP1 SWAP5 AND PUSH4 0xFFFF0000 NOT SWAP7 ISZERO ISZERO SWAP1 SWAP6 MUL PUSH2 0xFF00 NOT SWAP10 ISZERO ISZERO SWAP10 SWAP1 SWAP10 AND PUSH2 0xFFFF NOT SWAP1 SWAP8 AND SWAP7 SWAP1 SWAP7 OR SWAP8 SWAP1 SWAP8 OR SWAP4 SWAP1 SWAP4 AND SWAP2 SWAP1 SWAP2 OR OR AND OR SWAP2 SWAP1 SWAP2 OR SWAP1 SSTORE PUSH2 0x180 DUP5 ADD MLOAD PUSH1 0x7 DUP4 ADD SSTORE PUSH2 0x1A0 DUP5 ADD MLOAD PUSH1 0x8 DUP4 ADD DUP1 SLOAD SWAP4 SWAP5 SWAP2 SWAP4 SWAP1 SWAP3 PUSH1 0xFF NOT SWAP2 SWAP1 SWAP2 AND SWAP2 SWAP1 DUP5 SWAP1 DUP2 GT ISZERO PUSH2 0xC2F JUMPI PUSH2 0xC2F PUSH2 0x1DCA JUMP JUMPDEST MUL OR SWAP1 SSTORE POP SWAP1 POP POP DUP8 DUP6 PUSH32 0x9CE130F5EDECAB8B5EDA6B0406B91E49BD3AF67EF6D798E8E4FF9181A1E957F3 CALLER DUP11 PUSH1 0x40 MLOAD PUSH2 0xC6A SWAP3 SWAP2 SWAP1 PUSH2 0x2064 JUMP JUMPDEST PUSH1 0x40 MLOAD DUP1 SWAP2 SUB SWAP1 LOG3 POP POP POP POP SWAP4 SWAP3 POP POP POP JUMP JUMPDEST PUSH0 DUP2 DUP2 MSTORE PUSH1 0x3 PUSH1 0x20 MSTORE PUSH1 0x40 DUP2 KECCAK256 SWAP1 PUSH1 0x8 DUP3 ADD SLOAD PUSH1 0xFF AND PUSH1 0x4 DUP2 GT ISZERO PUSH2 0xCA4 JUMPI PUSH2 0xCA4 PUSH2 0x1DCA JUMP JUMPDEST EQ DUP1 PUSH2 0xCC8 JUMPI POP PUSH1 0x1 PUSH1 0x8 DUP3 ADD SLOAD PUSH1 0xFF AND PUSH1 0x4 DUP2 GT ISZERO PUSH2 0xCC6 JUMPI PUSH2 0xCC6 PUSH2 0x1DCA JUMP JUMPDEST EQ JUMPDEST PUSH2 0xD14 JUMPI PUSH1 0x40 MLOAD PUSH3 0x461BCD PUSH1 0xE5 SHL DUP2 MSTORE PUSH1 0x20 PUSH1 0x4 DUP3 ADD MSTORE PUSH1 0x1B PUSH1 0x24 DUP3 ADD MSTORE PUSH32 0x43616E6E6F742063616E63656C20617420746869732073746167650000000000 PUSH1 0x44 DUP3 ADD MSTORE PUSH1 0x64 ADD PUSH2 0x44A JUMP JUMPDEST PUSH1 0x1 DUP2 ADD SLOAD PUSH1 0x1 PUSH1 0x1 PUSH1 0xA0 SHL SUB AND CALLER EQ DUP1 PUSH2 0xD3B JUMPI POP PUSH1 0x2 DUP2 ADD SLOAD PUSH1 0x1 PUSH1 0x1 PUSH1 0xA0 SHL SUB AND CALLER EQ JUMPDEST PUSH2 0xD57 JUMPI PUSH1 0x40 MLOAD PUSH3 0x461BCD PUSH1 0xE5 SHL DUP2 MSTORE PUSH1 0x4 ADD PUSH2 0x44A SWAP1 PUSH2 0x2020 JUMP JUMPDEST PUSH1 0x8 DUP2 ADD DUP1 SLOAD PUSH1 0xFF NOT AND PUSH1 0x4 SWAP1 DUP2 OR SWAP1 SWAP2 SSTORE PUSH0 DUP4 DUP2 MSTORE PUSH1 0x20 SWAP2 SWAP1 SWAP2 MSTORE PUSH1 0x40 SWAP1 KECCAK256 SLOAD DUP1 ISZERO PUSH2 0xEE1 JUMPI PUSH0 DUP4 DUP2 MSTORE PUSH1 0x4 PUSH1 0x20 MSTORE PUSH1 0x40 DUP2 KECCAK256 SSTORE PUSH1 0x6 DUP3 ADD SLOAD PUSH1 0xFF AND ISZERO PUSH2 0xE36 JUMPI PUSH1 0x1 DUP3 ADD SLOAD PUSH1 0x40 MLOAD PUSH4 0xA9059CBB PUSH1 0xE0 SHL DUP2 MSTORE PUSH1 0x1 PUSH1 0x1 PUSH1 0xA0 SHL SUB PUSH32 0x0 DUP2 AND SWAP3 PUSH4 0xA9059CBB SWAP3 PUSH2 0xDF0 SWAP3 SWAP2 SWAP1 SWAP2 AND SWAP1 DUP6 SWAP1 PUSH1 0x4 ADD PUSH2 0x2064 JUMP JUMPDEST PUSH1 0x20 PUSH1 0x40 MLOAD DUP1 DUP4 SUB DUP2 PUSH0 DUP8 GAS CALL ISZERO DUP1 ISZERO PUSH2 0xE0C JUMPI RETURNDATASIZE PUSH0 PUSH0 RETURNDATACOPY RETURNDATASIZE PUSH0 REVERT JUMPDEST POP POP POP POP PUSH1 0x40 MLOAD RETURNDATASIZE PUSH1 0x1F NOT PUSH1 0x1F DUP3 ADD AND DUP3 ADD DUP1 PUSH1 0x40 MSTORE POP DUP2 ADD SWAP1 PUSH2 0xE30 SWAP2 SWAP1 PUSH2 0x2091 JUMP JUMPDEST POP PUSH2 0xEE1 JUMP JUMPDEST PUSH1 0x6 DUP3 ADD SLOAD PUSH2 0x100 SWAP1 DIV PUSH1 0xFF AND ISZERO PUSH2 0xEE1 JUMPI PUSH1 0x2 DUP3 ADD SLOAD PUSH1 0x40 MLOAD PUSH4 0xA9059CBB PUSH1 0xE0 SHL DUP2 MSTORE PUSH1 0x1 PUSH1 0x1 PUSH1 0xA0 SHL SUB PUSH32 0x0 DUP2 AND SWAP3 PUSH4 0xA9059CBB SWAP3 PUSH2 0xE9F SWAP3 SWAP2 SWAP1 SWAP2 AND SWAP1 DUP6 SWAP1 PUSH1 0x4 ADD PUSH2 0x2064 JUMP JUMPDEST PUSH1 0x20 PUSH1 0x40 MLOAD DUP1 DUP4 SUB DUP2 PUSH0 DUP8 GAS CALL ISZERO DUP1 ISZERO PUSH2 0xEBB JUMPI RETURNDATASIZE PUSH0 PUSH0 RETURNDATACOPY RETURNDATASIZE PUSH0 REVERT JUMPDEST POP POP POP POP PUSH1 0x40 MLOAD RETURNDATASIZE PUSH1 0x1F NOT PUSH1 0x1F DUP3 ADD AND DUP3 ADD DUP1 PUSH1 0x40 MSTORE POP DUP2 ADD SWAP1 PUSH2 0xEDF SWAP2 SWAP1 PUSH2 0x2091 JUMP JUMPDEST POP JUMPDEST PUSH1 0x40 DUP1 MLOAD PUSH0 DUP2 MSTORE PUSH1 0x20 DUP2 ADD DUP4 SWAP1 MSTORE DUP5 SWAP2 PUSH32 0xD3F1D26D5ED365EBCA70CE8AB95E0EB15F0388176548BC3A8913EE32BAA78339 SWAP2 ADD PUSH1 0x40 MLOAD DUP1 SWAP2 SUB SWAP1 LOG2 POP POP POP JUMP JUMPDEST PUSH0 DUP2 DUP2 MSTORE PUSH1 0x3 PUSH1 0x20 MSTORE PUSH1 0x40 SWAP1 KECCAK256 PUSH1 0x1 PUSH1 0x8 DUP3 ADD SLOAD PUSH1 0xFF AND PUSH1 0x4 DUP2 GT ISZERO PUSH2 0xF49 JUMPI PUSH2 0xF49 PUSH2 0x1DCA JUMP JUMPDEST EQ PUSH2 0xF8E JUMPI PUSH1 0x40 MLOAD PUSH3 0x461BCD PUSH1 0xE5 SHL DUP2 MSTORE PUSH1 0x20 PUSH1 0x4 DUP3 ADD MSTORE PUSH1 0x15 PUSH1 0x24 DUP3 ADD MSTORE PUSH21 0x4E6F7420696E204143434550544544207374617465 PUSH1 0x58 SHL PUSH1 0x44 DUP3 ADD MSTORE PUSH1 0x64 ADD PUSH2 0x44A JUMP JUMPDEST PUSH3 0x15180 DUP2 PUSH1 0x5 ADD SLOAD PUSH2 0xFA1 SWAP2 SWAP1 PUSH2 0x2007 JUMP JUMPDEST TIMESTAMP GT PUSH2 0xD57 JUMPI PUSH1 0x40 MLOAD PUSH3 0x461BCD PUSH1 0xE5 SHL DUP2 MSTORE PUSH1 0x20 PUSH1 0x4 DUP3 ADD MSTORE PUSH1 0x18 PUSH1 0x24 DUP3 ADD MSTORE PUSH32 0x4C6F636B20646561646C696E65206E6F74207061737365640000000000000000 PUSH1 0x44 DUP3 ADD MSTORE PUSH1 0x64 ADD PUSH2 0x44A JUMP JUMPDEST PUSH2 0xFF7 PUSH2 0x1D0F JUMP JUMPDEST PUSH2 0x1000 PUSH0 PUSH2 0x1D3B JUMP JUMPDEST JUMP JUMPDEST PUSH2 0x1076 PUSH1 0x40 DUP1 MLOAD PUSH2 0x1C0 DUP2 ADD DUP3 MSTORE PUSH0 DUP1 DUP3 MSTORE PUSH1 0x20 DUP3 ADD DUP2 SWAP1 MSTORE SWAP2 DUP2 ADD DUP3 SWAP1 MSTORE PUSH1 0x60 DUP2 ADD DUP3 SWAP1 MSTORE PUSH1 0x80 DUP2 ADD DUP3 SWAP1 MSTORE PUSH1 0xA0 DUP2 ADD DUP3 SWAP1 MSTORE PUSH1 0xC0 DUP2 ADD DUP3 SWAP1 MSTORE PUSH1 0xE0 DUP2 ADD DUP3 SWAP1 MSTORE PUSH2 0x100 DUP2 ADD DUP3 SWAP1 MSTORE PUSH2 0x120 DUP2 ADD DUP3 SWAP1 MSTORE PUSH2 0x140 DUP2 ADD DUP3 SWAP1 MSTORE PUSH2 0x160 DUP2 ADD DUP3 SWAP1 MSTORE PUSH2 0x180 DUP2 ADD DUP3 SWAP1 MSTORE SWAP1 PUSH2 0x1A0 DUP3 ADD MSTORE SWAP1 JUMP JUMPDEST PUSH0 DUP3 DUP2 MSTORE PUSH1 0x3 PUSH1 0x20 DUP2 DUP2 MSTORE PUSH1 0x40 SWAP3 DUP4 SWAP1 KECCAK256 DUP4 MLOAD PUSH2 0x1C0 DUP2 ADD DUP6 MSTORE DUP2 SLOAD DUP2 MSTORE PUSH1 0x1 DUP3 ADD SLOAD PUSH1 0x1 PUSH1 0x1 PUSH1 0xA0 SHL SUB SWAP1 DUP2 AND SWAP4 DUP3 ADD SWAP4 SWAP1 SWAP4 MSTORE PUSH1 0x2 DUP3 ADD SLOAD SWAP1 SWAP3 AND SWAP4 DUP3 ADD SWAP4 SWAP1 SWAP4 MSTORE SWAP1 DUP3 ADD SLOAD PUSH1 0x60 DUP3 ADD MSTORE PUSH1 0x4 DUP1 DUP4 ADD SLOAD PUSH1 0x80 DUP4 ADD MSTORE PUSH1 0x5 DUP4 ADD SLOAD PUSH1 0xA0 DUP4 ADD MSTORE PUSH1 0x6 DUP4 ADD SLOAD PUSH1 0xFF DUP1 DUP3 AND ISZERO ISZERO PUSH1 0xC0 DUP6 ADD MSTORE PUSH2 0x100 DUP1 DUP4 DIV DUP3 AND ISZERO ISZERO PUSH1 0xE0 DUP7 ADD MSTORE PUSH3 0x10000 DUP4 DIV DUP3 AND ISZERO ISZERO SWAP1 DUP6 ADD MSTORE PUSH4 0x1000000 DUP3 DIV DUP2 AND ISZERO ISZERO PUSH2 0x120 DUP6 ADD MSTORE PUSH5 0x100000000 DUP3 DIV DUP2 AND ISZERO ISZERO PUSH2 0x140 DUP6 ADD MSTORE PUSH1 0x1 PUSH1 0x28 SHL SWAP1 SWAP2 DIV DUP2 AND ISZERO ISZERO PUSH2 0x160 DUP5 ADD MSTORE PUSH1 0x7 DUP5 ADD SLOAD PUSH2 0x180 DUP5 ADD MSTORE PUSH1 0x8 DUP5 ADD SLOAD SWAP3 SWAP4 SWAP3 PUSH2 0x1A0 DUP6 ADD SWAP3 SWAP2 AND SWAP1 DUP2 GT ISZERO PUSH2 0x1166 JUMPI PUSH2 0x1166 PUSH2 0x1DCA JUMP JUMPDEST PUSH1 0x4 DUP2 GT ISZERO PUSH2 0x1177 JUMPI PUSH2 0x1177 PUSH2 0x1DCA JUMP JUMPDEST SWAP1 MSTORE POP SWAP3 SWAP2 POP POP JUMP JUMPDEST PUSH0 DUP2 DUP2 MSTORE PUSH1 0x3 PUSH1 0x20 MSTORE PUSH1 0x40 SWAP1 KECCAK256 PUSH1 0x2 PUSH1 0x8 DUP3 ADD SLOAD PUSH1 0xFF AND PUSH1 0x4 DUP2 GT ISZERO PUSH2 0x11A8 JUMPI PUSH2 0x11A8 PUSH2 0x1DCA JUMP JUMPDEST EQ PUSH2 0x11C5 JUMPI PUSH1 0x40 MLOAD PUSH3 0x461BCD PUSH1 0xE5 SHL DUP2 MSTORE PUSH1 0x4 ADD PUSH2 0x44A SWAP1 PUSH2 0x1FC9 JUMP JUMPDEST PUSH1 0x1 DUP2 ADD SLOAD PUSH1 0x1 PUSH1 0x1 PUSH1 0xA0 SHL SUB AND CALLER EQ DUP1 PUSH2 0x11EC JUMPI POP PUSH1 0x2 DUP2 ADD SLOAD PUSH1 0x1 PUSH1 0x1 PUSH1 0xA0 SHL SUB AND CALLER EQ JUMPDEST PUSH2 0x1208 JUMPI PUSH1 0x40 MLOAD PUSH3 0x461BCD PUSH1 0xE5 SHL DUP2 MSTORE PUSH1 0x4 ADD PUSH2 0x44A SWAP1 PUSH2 0x2020 JUMP JUMPDEST PUSH1 0x1 DUP2 ADD SLOAD PUSH1 0x1 PUSH1 0x1 PUSH1 0xA0 SHL SUB AND CALLER EQ DUP1 PUSH2 0x1232 JUMPI PUSH1 0x6 DUP3 ADD SLOAD PUSH4 0x1000000 SWAP1 DIV PUSH1 0xFF AND ISZERO PUSH2 0x1242 JUMP JUMPDEST PUSH1 0x6 DUP3 ADD SLOAD PUSH3 0x10000 SWAP1 DIV PUSH1 0xFF AND ISZERO JUMPDEST PUSH2 0x1282 JUMPI PUSH1 0x40 MLOAD PUSH3 0x461BCD PUSH1 0xE5 SHL DUP2 MSTORE PUSH1 0x20 PUSH1 0x4 DUP3 ADD MSTORE PUSH1 0x11 PUSH1 0x24 DUP3 ADD MSTORE PUSH17 0x105B1C9958591E4818DBDB999A5C9B5959 PUSH1 0x7A SHL PUSH1 0x44 DUP3 ADD MSTORE PUSH1 0x64 ADD PUSH2 0x44A JUMP JUMPDEST DUP1 ISZERO PUSH2 0x12A0 JUMPI PUSH1 0x6 DUP3 ADD DUP1 SLOAD PUSH3 0xFF0000 NOT AND PUSH3 0x10000 OR SWAP1 SSTORE PUSH2 0x12B6 JUMP JUMPDEST PUSH1 0x6 DUP3 ADD DUP1 SLOAD PUSH4 0xFF000000 NOT AND PUSH4 0x1000000 OR SWAP1 SSTORE JUMPDEST PUSH1 0x40 MLOAD CALLER DUP2 MSTORE DUP4 SWAP1 PUSH32 0xAA625224ABE831C446BECDC6FC980E2D722BE4382B7D95464829344C0B28EA4 SWAP1 PUSH1 0x20 ADD PUSH1 0x40 MLOAD DUP1 SWAP2 SUB SWAP1 LOG2 PUSH1 0x6 DUP3 ADD SLOAD PUSH3 0x10000 SWAP1 DIV PUSH1 0xFF AND DUP1 ISZERO PUSH2 0x1310 JUMPI POP PUSH1 0x6 DUP3 ADD SLOAD PUSH4 0x1000000 SWAP1 DIV PUSH1 0xFF AND JUMPDEST ISZERO PUSH2 0x1509 JUMPI PUSH1 0x8 DUP3 ADD DUP1 SLOAD PUSH1 0xFF NOT AND PUSH1 0x3 OR SWAP1 SSTORE PUSH0 DUP4 DUP2 MSTORE PUSH1 0x4 PUSH1 0x20 MSTORE PUSH1 0x40 DUP2 KECCAK256 SLOAD PUSH2 0x133E SWAP1 PUSH1 0x2 SWAP1 PUSH2 0x2045 JUMP JUMPDEST PUSH0 DUP6 DUP2 MSTORE PUSH1 0x4 PUSH1 0x20 DUP2 SWAP1 MSTORE PUSH1 0x40 DUP1 DUP4 KECCAK256 SWAP3 SWAP1 SWAP3 SSTORE PUSH1 0x1 DUP7 ADD SLOAD SWAP2 MLOAD PUSH4 0xA9059CBB PUSH1 0xE0 SHL DUP2 MSTORE SWAP3 SWAP4 POP PUSH1 0x1 PUSH1 0x1 PUSH1 0xA0 SHL SUB PUSH32 0x0 DUP2 AND SWAP4 PUSH4 0xA9059CBB SWAP4 PUSH2 0x13A7 SWAP4 SWAP3 AND SWAP2 DUP7 SWAP2 ADD PUSH2 0x2064 JUMP JUMPDEST PUSH1 0x20 PUSH1 0x40 MLOAD DUP1 DUP4 SUB DUP2 PUSH0 DUP8 GAS CALL ISZERO DUP1 ISZERO PUSH2 0x13C3 JUMPI RETURNDATASIZE PUSH0 PUSH0 RETURNDATACOPY RETURNDATASIZE PUSH0 REVERT JUMPDEST POP POP POP POP PUSH1 0x40 MLOAD RETURNDATASIZE PUSH1 0x1F NOT PUSH1 0x1F DUP3 ADD AND DUP3 ADD DUP1 PUSH1 0x40 MSTORE POP DUP2 ADD SWAP1 PUSH2 0x13E7 SWAP2 SWAP1 PUSH2 0x2091 JUMP JUMPDEST POP PUSH1 0x2 DUP4 ADD SLOAD PUSH1 0x40 MLOAD PUSH4 0xA9059CBB PUSH1 0xE0 SHL DUP2 MSTORE PUSH1 0x1 PUSH1 0x1 PUSH1 0xA0 SHL SUB PUSH32 0x0 DUP2 AND SWAP3 PUSH4 0xA9059CBB SWAP3 PUSH2 0x143F SWAP3 SWAP2 SWAP1 SWAP2 AND SWAP1 DUP6 SWAP1 PUSH1 0x4 ADD PUSH2 0x2064 JUMP JUMPDEST PUSH1 0x20 PUSH1 0x40 MLOAD DUP1 DUP4 SUB DUP2 PUSH0 DUP8 GAS CALL ISZERO DUP1 ISZERO PUSH2 0x145B JUMPI RETURNDATASIZE PUSH0 PUSH0 RETURNDATACOPY RETURNDATASIZE PUSH0 REVERT JUMPDEST POP POP POP POP PUSH1 0x40 MLOAD RETURNDATASIZE PUSH1 0x1F NOT PUSH1 0x1F DUP3 ADD AND DUP3 ADD DUP1 PUSH1 0x40 MSTORE POP DUP2 ADD SWAP1 PUSH2 0x147F SWAP2 SWAP1 PUSH2 0x2091 JUMP JUMPDEST POP PUSH1 0x2 SLOAD DUP4 SLOAD PUSH1 0x40 MLOAD PUSH4 0x5E36DFFD PUSH1 0xE1 SHL DUP2 MSTORE PUSH1 0x1 PUSH1 0x1 PUSH1 0xA0 SHL SUB SWAP1 SWAP3 AND SWAP2 PUSH4 0xBC6DBFFA SWAP2 PUSH2 0x14B4 SWAP2 PUSH1 0x4 ADD SWAP1 DUP2 MSTORE PUSH1 0x20 ADD SWAP1 JUMP JUMPDEST PUSH0 PUSH1 0x40 MLOAD DUP1 DUP4 SUB DUP2 PUSH0 DUP8 DUP1 EXTCODESIZE ISZERO DUP1 ISZERO PUSH2 0x14CB JUMPI PUSH0 PUSH0 REVERT JUMPDEST POP GAS CALL SWAP3 POP POP POP DUP1 ISZERO PUSH2 0x14DC JUMPI POP PUSH1 0x1 JUMPDEST POP PUSH1 0x40 MLOAD DUP5 SWAP1 PUSH32 0x4D17CF178DED2E6AD698E49A803D7795CFECB5CC75C6CC2122E33EBD5E88D321 SWAP1 PUSH0 SWAP1 LOG2 POP JUMPDEST POP POP POP JUMP JUMPDEST PUSH0 DUP2 DUP2 MSTORE PUSH1 0x3 PUSH1 0x20 MSTORE PUSH1 0x40 SWAP1 KECCAK256 PUSH1 0x2 PUSH1 0x8 DUP3 ADD SLOAD PUSH1 0xFF AND PUSH1 0x4 DUP2 GT ISZERO PUSH2 0x1536 JUMPI PUSH2 0x1536 PUSH2 0x1DCA JUMP JUMPDEST EQ PUSH2 0x1553 JUMPI PUSH1 0x40 MLOAD PUSH3 0x461BCD PUSH1 0xE5 SHL DUP2 MSTORE PUSH1 0x4 ADD PUSH2 0x44A SWAP1 PUSH2 0x1FC9 JUMP JUMPDEST PUSH1 0x1 DUP2 ADD SLOAD PUSH1 0x1 PUSH1 0x1 PUSH1 0xA0 SHL SUB AND CALLER EQ DUP1 PUSH2 0x157A JUMPI POP PUSH1 0x2 DUP2 ADD SLOAD PUSH1 0x1 PUSH1 0x1 PUSH1 0xA0 SHL SUB AND CALLER EQ JUMPDEST PUSH2 0x1596 JUMPI PUSH1 0x40 MLOAD PUSH3 0x461BCD PUSH1 0xE5 SHL DUP2 MSTORE PUSH1 0x4 ADD PUSH2 0x44A SWAP1 PUSH2 0x2020 JUMP JUMPDEST DUP1 PUSH1 0x4 ADD SLOAD TIMESTAMP LT ISZERO PUSH2 0x1603 JUMPI PUSH1 0x40 MLOAD PUSH3 0x461BCD PUSH1 0xE5 SHL DUP2 MSTORE PUSH1 0x20 PUSH1 0x4 DUP3 ADD MSTORE PUSH1 0x30 PUSH1 0x24 DUP3 ADD MSTORE PUSH32 0x44617465206E6F7420796574207061737365642C2075736520756E7374616B65 PUSH1 0x44 DUP3 ADD MSTORE PUSH16 0x8199BDC88199D5B1B081C99599D5B99 PUSH1 0x82 SHL PUSH1 0x64 DUP3 ADD MSTORE PUSH1 0x84 ADD PUSH2 0x44A JUMP JUMPDEST PUSH1 0x1 DUP2 ADD SLOAD PUSH1 0x1 PUSH1 0x1 PUSH1 0xA0 SHL SUB AND CALLER EQ DUP1 PUSH2 0x162D JUMPI PUSH1 0x6 DUP3 ADD SLOAD PUSH1 0x1 PUSH1 0x28 SHL SWAP1 DIV PUSH1 0xFF AND ISZERO PUSH2 0x163F JUMP JUMPDEST PUSH1 0x6 DUP3 ADD SLOAD PUSH5 0x100000000 SWAP1 DIV PUSH1 0xFF AND ISZERO JUMPDEST PUSH2 0x1683 JUMPI PUSH1 0x40 MLOAD PUSH3 0x461BCD PUSH1 0xE5 SHL DUP2 MSTORE PUSH1 0x20 PUSH1 0x4 DUP3 ADD MSTORE PUSH1 0x15 PUSH1 0x24 DUP3 ADD MSTORE PUSH21 0x105B1C9958591E481CDA59DB99590818D85B98D95B PUSH1 0x5A SHL PUSH1 0x44 DUP3 ADD MSTORE PUSH1 0x64 ADD PUSH2 0x44A JUMP JUMPDEST DUP1 ISZERO PUSH2 0x16A5 JUMPI PUSH1 0x6 DUP3 ADD DUP1 SLOAD PUSH5 0xFF00000000 NOT AND PUSH5 0x100000000 OR SWAP1 SSTORE PUSH2 0x16BD JUMP JUMPDEST PUSH1 0x6 DUP3 ADD DUP1 SLOAD PUSH6 0xFF0000000000 NOT AND PUSH1 0x1 PUSH1 0x28 SHL OR SWAP1 SSTORE JUMPDEST DUP2 PUSH1 0x7 ADD SLOAD PUSH0 SUB PUSH2 0x16CF JUMPI TIMESTAMP PUSH1 0x7 DUP4 ADD SSTORE JUMPDEST PUSH1 0x40 MLOAD CALLER DUP2 MSTORE DUP4 SWAP1 PUSH32 0x1280668F71806345C124C4F3D057384558E5EA366ECEA909659D21AF98A11BA2 SWAP1 PUSH1 0x20 ADD PUSH1 0x40 MLOAD DUP1 SWAP2 SUB SWAP1 LOG2 PUSH1 0x6 DUP3 ADD SLOAD PUSH5 0x100000000 SWAP1 DIV PUSH1 0xFF AND DUP1 ISZERO PUSH2 0x172B JUMPI POP PUSH1 0x6 DUP3 ADD SLOAD PUSH1 0x1 PUSH1 0x28 SHL SWAP1 DIV PUSH1 0xFF AND JUMPDEST ISZERO PUSH2 0x1509 JUMPI PUSH2 0x1509 DUP4 DUP4 PUSH2 0x1A9C JUMP JUMPDEST PUSH0 DUP2 DUP2 MSTORE PUSH1 0x3 PUSH1 0x20 MSTORE PUSH1 0x40 SWAP1 KECCAK256 PUSH1 0x1 PUSH1 0x8 DUP3 ADD SLOAD PUSH1 0xFF AND PUSH1 0x4 DUP2 GT ISZERO PUSH2 0x1762 JUMPI PUSH2 0x1762 PUSH2 0x1DCA JUMP JUMPDEST EQ PUSH2 0x17A7 JUMPI PUSH1 0x40 MLOAD PUSH3 0x461BCD PUSH1 0xE5 SHL DUP2 MSTORE PUSH1 0x20 PUSH1 0x4 DUP3 ADD MSTORE PUSH1 0x15 PUSH1 0x24 DUP3 ADD MSTORE PUSH21 0x4E6F7420696E204143434550544544207374617465 PUSH1 0x58 SHL PUSH1 0x44 DUP3 ADD MSTORE PUSH1 0x64 ADD PUSH2 0x44A JUMP JUMPDEST PUSH1 0x1 DUP2 ADD SLOAD PUSH1 0x1 PUSH1 0x1 PUSH1 0xA0 SHL SUB AND CALLER EQ DUP1 PUSH2 0x17CE JUMPI POP PUSH1 0x2 DUP2 ADD SLOAD PUSH1 0x1 PUSH1 0x1 PUSH1 0xA0 SHL SUB AND CALLER EQ JUMPDEST PUSH2 0x17EA JUMPI PUSH1 0x40 MLOAD PUSH3 0x461BCD PUSH1 0xE5 SHL DUP2 MSTORE PUSH1 0x4 ADD PUSH2 0x44A SWAP1 PUSH2 0x2020 JUMP JUMPDEST PUSH3 0x15180 DUP2 PUSH1 0x5 ADD SLOAD PUSH2 0x17FD SWAP2 SWAP1 PUSH2 0x2007 JUMP JUMPDEST TIMESTAMP GT ISZERO PUSH2 0x1843 JUMPI PUSH1 0x40 MLOAD PUSH3 0x461BCD PUSH1 0xE5 SHL DUP2 MSTORE PUSH1 0x20 PUSH1 0x4 DUP3 ADD MSTORE PUSH1 0x14 PUSH1 0x24 DUP3 ADD MSTORE PUSH20 0x131BD8DAC8191958591B1A5B99481C185CDCD959 PUSH1 0x62 SHL PUSH1 0x44 DUP3 ADD MSTORE PUSH1 0x64 ADD PUSH2 0x44A JUMP JUMPDEST PUSH1 0x1 DUP2 ADD SLOAD PUSH1 0x1 PUSH1 0x1 PUSH1 0xA0 SHL SUB AND CALLER EQ DUP1 PUSH2 0x186B JUMPI PUSH1 0x6 DUP3 ADD SLOAD PUSH2 0x100 SWAP1 DIV PUSH1 0xFF AND ISZERO PUSH2 0x1875 JUMP JUMPDEST PUSH1 0x6 DUP3 ADD SLOAD PUSH1 0xFF AND ISZERO JUMPDEST PUSH2 0x18B2 JUMPI PUSH1 0x40 MLOAD PUSH3 0x461BCD PUSH1 0xE5 SHL DUP2 MSTORE PUSH1 0x20 PUSH1 0x4 DUP3 ADD MSTORE PUSH1 0xE PUSH1 0x24 DUP3 ADD MSTORE PUSH14 0x105B1C9958591E481B1BD8DAD959 PUSH1 0x92 SHL PUSH1 0x44 DUP3 ADD MSTORE PUSH1 0x64 ADD PUSH2 0x44A JUMP JUMPDEST PUSH1 0x3 DUP3 ADD SLOAD PUSH1 0x40 MLOAD PUSH4 0x23B872DD PUSH1 0xE0 SHL DUP2 MSTORE CALLER PUSH1 0x4 DUP3 ADD MSTORE ADDRESS PUSH1 0x24 DUP3 ADD MSTORE PUSH1 0x44 DUP2 ADD SWAP2 SWAP1 SWAP2 MSTORE PUSH32 0x0 PUSH1 0x1 PUSH1 0x1 PUSH1 0xA0 SHL SUB AND SWAP1 PUSH4 0x23B872DD SWAP1 PUSH1 0x64 ADD PUSH1 0x20 PUSH1 0x40 MLOAD DUP1 DUP4 SUB DUP2 PUSH0 DUP8 GAS CALL ISZERO DUP1 ISZERO PUSH2 0x1928 JUMPI RETURNDATASIZE PUSH0 PUSH0 RETURNDATACOPY RETURNDATASIZE PUSH0 REVERT JUMPDEST POP POP POP POP PUSH1 0x40 MLOAD RETURNDATASIZE PUSH1 0x1F NOT PUSH1 0x1F DUP3 ADD AND DUP3 ADD DUP1 PUSH1 0x40 MSTORE POP DUP2 ADD SWAP1 PUSH2 0x194C SWAP2 SWAP1 PUSH2 0x2091 JUMP JUMPDEST POP PUSH1 0x3 DUP3 ADD SLOAD PUSH0 DUP5 DUP2 MSTORE PUSH1 0x4 PUSH1 0x20 MSTORE PUSH1 0x40 DUP2 KECCAK256 DUP1 SLOAD SWAP1 SWAP2 SWAP1 PUSH2 0x196F SWAP1 DUP5 SWAP1 PUSH2 0x2007 JUMP JUMPDEST SWAP1 SWAP2 SSTORE POP POP DUP1 ISZERO PUSH2 0x198E JUMPI PUSH1 0x6 DUP3 ADD DUP1 SLOAD PUSH1 0xFF NOT AND PUSH1 0x1 OR SWAP1 SSTORE PUSH2 0x19A0 JUMP JUMPDEST PUSH1 0x6 DUP3 ADD DUP1 SLOAD PUSH2 0xFF00 NOT AND PUSH2 0x100 OR SWAP1 SSTORE JUMPDEST PUSH1 0x40 MLOAD CALLER DUP2 MSTORE DUP4 SWAP1 PUSH32 0x478FEB1D78FD01BCAE250672CF6F6AA8302599E417A02CED4B1992A70CC778C1 SWAP1 PUSH1 0x20 ADD PUSH1 0x40 MLOAD DUP1 SWAP2 SUB SWAP1 LOG2 PUSH1 0x6 DUP3 ADD SLOAD PUSH1 0xFF AND DUP1 ISZERO PUSH2 0x19F2 JUMPI POP PUSH1 0x6 DUP3 ADD SLOAD PUSH2 0x100 SWAP1 DIV PUSH1 0xFF AND JUMPDEST ISZERO PUSH2 0x1509 JUMPI PUSH1 0x8 DUP3 ADD DUP1 SLOAD PUSH1 0xFF NOT AND PUSH1 0x2 OR SWAP1 SSTORE PUSH1 0x40 MLOAD DUP4 SWAP1 PUSH32 0x80F6B341DD27632FD09493CAC69D3949C12F9C2DF7D42EB9E2D8472B5DCE94B1 SWAP1 PUSH0 SWAP1 LOG2 POP POP POP JUMP JUMPDEST PUSH2 0x1A3D PUSH2 0x1D0F JUMP JUMPDEST PUSH1 0x1 DUP1 SLOAD PUSH1 0x1 PUSH1 0x1 PUSH1 0xA0 SHL SUB NOT AND PUSH1 0x1 PUSH1 0x1 PUSH1 0xA0 SHL SUB SWAP3 SWAP1 SWAP3 AND SWAP2 SWAP1 SWAP2 OR SWAP1 SSTORE JUMP JUMPDEST PUSH2 0x1A67 PUSH2 0x1D0F JUMP JUMPDEST PUSH1 0x1 PUSH1 0x1 PUSH1 0xA0 SHL SUB DUP2 AND PUSH2 0x1A90 JUMPI PUSH1 0x40 MLOAD PUSH4 0x1E4FBDF7 PUSH1 0xE0 SHL DUP2 MSTORE PUSH0 PUSH1 0x4 DUP3 ADD MSTORE PUSH1 0x24 ADD PUSH2 0x44A JUMP JUMPDEST PUSH2 0x1A99 DUP2 PUSH2 0x1D3B JUMP JUMPDEST POP JUMP JUMPDEST PUSH1 0x8 DUP2 ADD DUP1 SLOAD PUSH1 0xFF NOT AND PUSH1 0x4 SWAP1 DUP2 OR SWAP1 SWAP2 SSTORE PUSH0 DUP4 DUP2 MSTORE PUSH1 0x20 SWAP2 SWAP1 SWAP2 MSTORE PUSH1 0x40 DUP2 KECCAK256 SLOAD SWAP1 PUSH2 0x2710 PUSH2 0x1ACD PUSH2 0x7D0 DUP5 PUSH2 0x214C JUMP JUMPDEST PUSH2 0x1AD7 SWAP2 SWAP1 PUSH2 0x2045 JUMP JUMPDEST SWAP1 POP PUSH0 PUSH1 0x2 PUSH2 0x1AE6 DUP4 DUP6 PUSH2 0x2163 JUMP JUMPDEST PUSH2 0x1AF0 SWAP2 SWAP1 PUSH2 0x2045 JUMP JUMPDEST PUSH0 DUP7 DUP2 MSTORE PUSH1 0x4 PUSH1 0x20 MSTORE PUSH1 0x40 DUP2 KECCAK256 SSTORE SWAP1 POP DUP2 ISZERO PUSH2 0x1B9D JUMPI PUSH1 0x1 SLOAD PUSH1 0x40 MLOAD PUSH4 0xA9059CBB PUSH1 0xE0 SHL DUP2 MSTORE PUSH1 0x1 PUSH1 0x1 PUSH1 0xA0 SHL SUB PUSH32 0x0 DUP2 AND SWAP3 PUSH4 0xA9059CBB SWAP3 PUSH2 0x1B5B SWAP3 SWAP2 SWAP1 SWAP2 AND SWAP1 DUP7 SWAP1 PUSH1 0x4 ADD PUSH2 0x2064 JUMP JUMPDEST PUSH1 0x20 PUSH1 0x40 MLOAD DUP1 DUP4 SUB DUP2 PUSH0 DUP8 GAS CALL ISZERO DUP1 ISZERO PUSH2 0x1B77 JUMPI RETURNDATASIZE PUSH0 PUSH0 RETURNDATACOPY RETURNDATASIZE PUSH0 REVERT JUMPDEST POP POP POP POP PUSH1 0x40 MLOAD RETURNDATASIZE PUSH1 0x1F NOT PUSH1 0x1F DUP3 ADD AND DUP3 ADD DUP1 PUSH1 0x40 MSTORE POP DUP2 ADD SWAP1 PUSH2 0x1B9B SWAP2 SWAP1 PUSH2 0x2091 JUMP JUMPDEST POP JUMPDEST PUSH1 0x1 DUP5 ADD SLOAD PUSH1 0x40 MLOAD PUSH4 0xA9059CBB PUSH1 0xE0 SHL DUP2 MSTORE PUSH1 0x1 PUSH1 0x1 PUSH1 0xA0 SHL SUB PUSH32 0x0 DUP2 AND SWAP3 PUSH4 0xA9059CBB SWAP3 PUSH2 0x1BF4 SWAP3 SWAP2 SWAP1 SWAP2 AND SWAP1 DUP6 SWAP1 PUSH1 0x4 ADD PUSH2 0x2064 JUMP JUMPDEST PUSH1 0x20 PUSH1 0x40 MLOAD DUP1 DUP4 SUB DUP2 PUSH0 DUP8 GAS CALL ISZERO DUP1 ISZERO PUSH2 0x1C10 JUMPI RETURNDATASIZE PUSH0 PUSH0 RETURNDATACOPY RETURNDATASIZE PUSH0 REVERT JUMPDEST POP POP POP POP PUSH1 0x40 MLOAD RETURNDATASIZE PUSH1 0x1F NOT PUSH1 0x1F DUP3 ADD AND DUP3 ADD DUP1 PUSH1 0x40 MSTORE POP DUP2 ADD SWAP1 PUSH2 0x1C34 SWAP2 SWAP1 PUSH2 0x2091 JUMP JUMPDEST POP PUSH1 0x2 DUP5 ADD SLOAD PUSH1 0x40 MLOAD PUSH4 0xA9059CBB PUSH1 0xE0 SHL DUP2 MSTORE PUSH1 0x1 PUSH1 0x1 PUSH1 0xA0 SHL SUB PUSH32 0x0 DUP2 AND SWAP3 PUSH4 0xA9059CBB SWAP3 PUSH2 0x1C8C SWAP3 SWAP2 SWAP1 SWAP2 AND SWAP1 DUP6 SWAP1 PUSH1 0x4 ADD PUSH2 0x2064 JUMP JUMPDEST PUSH1 0x20 PUSH1 0x40 MLOAD DUP1 DUP4 SUB DUP2 PUSH0 DUP8 GAS CALL ISZERO DUP1 ISZERO PUSH2 0x1CA8 JUMPI RETURNDATASIZE PUSH0 PUSH0 RETURNDATACOPY RETURNDATASIZE PUSH0 REVERT JUMPDEST POP POP POP POP PUSH1 0x40 MLOAD RETURNDATASIZE PUSH1 0x1F NOT PUSH1 0x1F DUP3 ADD AND DUP3 ADD DUP1 PUSH1 0x40 MSTORE POP DUP2 ADD SWAP1 PUSH2 0x1CCC SWAP2 SWAP1 PUSH2 0x2091 JUMP JUMPDEST POP PUSH1 0x40 DUP1 MLOAD DUP4 DUP2 MSTORE PUSH1 0x20 DUP2 ADD DUP4 SWAP1 MSTORE DUP7 SWAP2 PUSH32 0xD3F1D26D5ED365EBCA70CE8AB95E0EB15F0388176548BC3A8913EE32BAA78339 SWAP2 ADD PUSH1 0x40 MLOAD DUP1 SWAP2 SUB SWAP1 LOG2 POP POP POP POP POP JUMP JUMPDEST PUSH0 SLOAD PUSH1 0x1 PUSH1 0x1 PUSH1 0xA0 SHL SUB AND CALLER EQ PUSH2 0x1000 JUMPI PUSH1 0x40 MLOAD PUSH4 0x118CDAA7 PUSH1 0xE0 SHL DUP2 MSTORE CALLER PUSH1 0x4 DUP3 ADD MSTORE PUSH1 0x24 ADD PUSH2 0x44A JUMP JUMPDEST PUSH0 DUP1 SLOAD PUSH1 0x1 PUSH1 0x1 PUSH1 0xA0 SHL SUB DUP4 DUP2 AND PUSH1 0x1 PUSH1 0x1 PUSH1 0xA0 SHL SUB NOT DUP4 AND DUP2 OR DUP5 SSTORE PUSH1 0x40 MLOAD SWAP2 SWAP1 SWAP3 AND SWAP3 DUP4 SWAP2 PUSH32 0x8BE0079C531659141344CD1FD0A4F28419497F9722A3DAAFE3B4186F6B6457E0 SWAP2 SWAP1 LOG3 POP POP JUMP JUMPDEST PUSH0 PUSH1 0x20 DUP3 DUP5 SUB SLT ISZERO PUSH2 0x1D9A JUMPI PUSH0 PUSH0 REVERT JUMPDEST POP CALLDATALOAD SWAP2 SWAP1 POP JUMP JUMPDEST PUSH0 PUSH0 PUSH0 PUSH1 0x60 DUP5 DUP7 SUB SLT ISZERO PUSH2 0x1DB3 JUMPI PUSH0 PUSH0 REVERT JUMPDEST POP POP DUP2 CALLDATALOAD SWAP4 PUSH1 0x20 DUP4 ADD CALLDATALOAD SWAP4 POP PUSH1 0x40 SWAP1 SWAP3 ADD CALLDATALOAD SWAP2 SWAP1 POP JUMP JUMPDEST PUSH4 0x4E487B71 PUSH1 0xE0 SHL PUSH0 MSTORE PUSH1 0x21 PUSH1 0x4 MSTORE PUSH1 0x24 PUSH0 REVERT JUMPDEST PUSH1 0x5 DUP2 LT PUSH2 0x1DFA JUMPI PUSH4 0x4E487B71 PUSH1 0xE0 SHL PUSH0 MSTORE PUSH1 0x21 PUSH1 0x4 MSTORE PUSH1 0x24 PUSH0 REVERT JUMPDEST SWAP1 MSTORE JUMP JUMPDEST DUP2 MLOAD DUP2 MSTORE PUSH1 0x20 DUP1 DUP4 ADD MLOAD PUSH2 0x1C0 DUP4 ADD SWAP2 PUSH2 0x1E22 SWAP1 DUP5 ADD DUP3 PUSH1 0x1 PUSH1 0x1 PUSH1 0xA0 SHL SUB AND SWAP1 MSTORE JUMP JUMPDEST POP PUSH1 0x40 DUP4 ADD MLOAD PUSH2 0x1E3D PUSH1 0x40 DUP5 ADD DUP3 PUSH1 0x1 PUSH1 0x1 PUSH1 0xA0 SHL SUB AND SWAP1 MSTORE JUMP JUMPDEST POP PUSH1 0x60 DUP4 ADD MLOAD PUSH1 0x60 DUP4 ADD MSTORE PUSH1 0x80 DUP4 ADD MLOAD PUSH1 0x80 DUP4 ADD MSTORE PUSH1 0xA0 DUP4 ADD MLOAD PUSH1 0xA0 DUP4 ADD MSTORE PUSH1 0xC0 DUP4 ADD MLOAD PUSH2 0x1E6F PUSH1 0xC0 DUP5 ADD DUP3 ISZERO ISZERO SWAP1 MSTORE JUMP JUMPDEST POP PUSH1 0xE0 DUP4 ADD MLOAD PUSH2 0x1E83 PUSH1 0xE0 DUP5 ADD DUP3 ISZERO ISZERO SWAP1 MSTORE JUMP JUMPDEST POP PUSH2 0x100 DUP4 ADD MLOAD PUSH2 0x1E99 PUSH2 0x100 DUP5 ADD DUP3 ISZERO ISZERO SWAP1 MSTORE JUMP JUMPDEST POP PUSH2 0x120 DUP4 ADD MLOAD PUSH2 0x1EAF PUSH2 0x120 DUP5 ADD DUP3 ISZERO ISZERO SWAP1 MSTORE JUMP JUMPDEST POP PUSH2 0x140 DUP4 ADD MLOAD PUSH2 0x1EC5 PUSH2 0x140 DUP5 ADD DUP3 ISZERO ISZERO SWAP1 MSTORE JUMP JUMPDEST POP PUSH2 0x160 DUP4 ADD MLOAD PUSH2 0x1EDB PUSH2 0x160 DUP5 ADD DUP3 ISZERO ISZERO SWAP1 MSTORE JUMP JUMPDEST POP PUSH2 0x180 DUP4 ADD MLOAD PUSH2 0x180 DUP4 ADD MSTORE PUSH2 0x1A0 DUP4 ADD MLOAD PUSH2 0x1EFC PUSH2 0x1A0 DUP5 ADD DUP3 PUSH2 0x1DDE JUMP JUMPDEST POP SWAP3 SWAP2 POP POP JUMP JUMPDEST DUP15 DUP2 MSTORE PUSH1 0x1 PUSH1 0x1 PUSH1 0xA0 SHL SUB DUP15 DUP2 AND PUSH1 0x20 DUP4 ADD MSTORE DUP14 AND PUSH1 0x40 DUP3 ADD MSTORE PUSH1 0x60 DUP2 ADD DUP13 SWAP1 MSTORE PUSH1 0x80 DUP2 ADD DUP12 SWAP1 MSTORE PUSH1 0xA0 DUP2 ADD DUP11 SWAP1 MSTORE DUP9 ISZERO ISZERO PUSH1 0xC0 DUP3 ADD MSTORE PUSH2 0x1C0 DUP2 ADD DUP9 ISZERO ISZERO PUSH1 0xE0 DUP4 ADD MSTORE DUP8 ISZERO ISZERO PUSH2 0x100 DUP4 ADD MSTORE DUP7 ISZERO ISZERO PUSH2 0x120 DUP4 ADD MSTORE DUP6 ISZERO ISZERO PUSH2 0x140 DUP4 ADD MSTORE DUP5 ISZERO ISZERO PUSH2 0x160 DUP4 ADD MSTORE DUP4 PUSH2 0x180 DUP4 ADD MSTORE PUSH2 0x1F80 PUSH2 0x1A0 DUP4 ADD DUP5 PUSH2 0x1DDE JUMP JUMPDEST SWAP16 SWAP15 POP POP POP POP POP POP POP POP POP POP POP POP POP POP POP JUMP JUMPDEST PUSH1 0x1 PUSH1 0x1 PUSH1 0xA0 SHL SUB DUP2 AND DUP2 EQ PUSH2 0x1A99 JUMPI PUSH0 PUSH0 REVERT JUMPDEST PUSH0 PUSH1 0x20 DUP3 DUP5 SUB SLT ISZERO PUSH2 0x1FB7 JUMPI PUSH0 PUSH0 REVERT JUMPDEST DUP2 CALLDATALOAD PUSH2 0x1FC2 DUP2 PUSH2 0x1F93 JUMP JUMPDEST SWAP4 SWAP3 POP POP POP JUMP JUMPDEST PUSH1 0x20 DUP1 DUP3 MSTORE PUSH1 0x10 SWAP1 DUP3 ADD MSTORE PUSH16 0x139BDD08199D5B1B1E481B1BD8DAD959 PUSH1 0x82 SHL PUSH1 0x40 DUP3 ADD MSTORE PUSH1 0x60 ADD SWAP1 JUMP JUMPDEST PUSH4 0x4E487B71 PUSH1 0xE0 SHL PUSH0 MSTORE PUSH1 0x11 PUSH1 0x4 MSTORE PUSH1 0x24 PUSH0 REVERT JUMPDEST DUP1 DUP3 ADD DUP1 DUP3 GT ISZERO PUSH2 0x201A JUMPI PUSH2 0x201A PUSH2 0x1FF3 JUMP JUMPDEST SWAP3 SWAP2 POP POP JUMP JUMPDEST PUSH1 0x20 DUP1 DUP3 MSTORE PUSH1 0xB SWAP1 DUP3 ADD MSTORE PUSH11 0x4E6F742061207061727479 PUSH1 0xA8 SHL PUSH1 0x40 DUP3 ADD MSTORE PUSH1 0x60 ADD SWAP1 JUMP JUMPDEST PUSH0 DUP3 PUSH2 0x205F JUMPI PUSH4 0x4E487B71 PUSH1 0xE0 SHL PUSH0 MSTORE PUSH1 0x12 PUSH1 0x4 MSTORE PUSH1 0x24 PUSH0 REVERT JUMPDEST POP DIV SWAP1 JUMP JUMPDEST PUSH1 0x1 PUSH1 0x1 PUSH1 0xA0 SHL SUB SWAP3 SWAP1 SWAP3 AND DUP3 MSTORE PUSH1 0x20 DUP3 ADD MSTORE PUSH1 0x40 ADD SWAP1 JUMP JUMPDEST DUP1 MLOAD DUP1 ISZERO ISZERO DUP2 EQ PUSH2 0x208C JUMPI PUSH0 PUSH0 REVERT JUMPDEST SWAP2 SWAP1 POP JUMP JUMPDEST PUSH0 PUSH1 0x20 DUP3 DUP5 SUB SLT ISZERO PUSH2 0x20A1 JUMPI PUSH0 PUSH0 REVERT JUMPDEST PUSH2 0x1FC2 DUP3 PUSH2 0x207D JUMP JUMPDEST PUSH0 PUSH0 PUSH0 PUSH0 PUSH0 PUSH0 PUSH0 PUSH0 PUSH0 PUSH2 0x120 DUP11 DUP13 SUB SLT ISZERO PUSH2 0x20C3 JUMPI PUSH0 PUSH0 REVERT JUMPDEST DUP10 MLOAD PUSH2 0x20CE DUP2 PUSH2 0x1F93 JUMP JUMPDEST PUSH1 0x20 DUP12 ADD MLOAD SWAP1 SWAP10 POP PUSH2 0x20DF DUP2 PUSH2 0x1F93 JUMP JUMPDEST PUSH1 0x40 DUP12 ADD MLOAD PUSH1 0x60 DUP13 ADD MLOAD PUSH1 0x80 DUP14 ADD MLOAD SWAP3 SWAP11 POP SWAP1 SWAP9 POP SWAP7 POP SWAP5 POP PUSH2 0x2104 PUSH1 0xA0 DUP12 ADD PUSH2 0x207D JUMP JUMPDEST SWAP4 POP PUSH2 0x2112 PUSH1 0xC0 DUP12 ADD PUSH2 0x207D JUMP JUMPDEST PUSH1 0xE0 DUP12 ADD MLOAD PUSH2 0x100 SWAP1 SWAP12 ADD MLOAD SWAP10 SWAP13 SWAP9 SWAP12 POP SWAP7 SWAP10 SWAP6 SWAP9 SWAP5 SWAP8 SWAP4 SWAP7 SWAP6 SWAP5 SWAP4 SWAP3 POP POP POP JUMP JUMPDEST PUSH0 PUSH1 0x1 DUP3 ADD PUSH2 0x2145 JUMPI PUSH2 0x2145 PUSH2 0x1FF3 JUMP JUMPDEST POP PUSH1 0x1 ADD SWAP1 JUMP JUMPDEST DUP1 DUP3 MUL DUP2 ISZERO DUP3 DUP3 DIV DUP5 EQ OR PUSH2 0x201A JUMPI PUSH2 0x201A PUSH2 0x1FF3 JUMP JUMPDEST DUP2 DUP2 SUB DUP2 DUP2 GT ISZERO PUSH2 0x201A JUMPI PUSH2 0x201A PUSH2 0x1FF3 JUMP INVALID LOG2 PUSH5 0x6970667358 0x22 SLT KECCAK256 DUP15 0xD 0xCF 0xAE MSTORE PUSH23 0x745C59AD6A81A2B158A27427DCF2337319727393986610 ISZERO 0x4F PUSH17 0x64736F6C634300081C0033000000000000 "
        },
        "methodIdentifiers": {
          "CANCEL_FEE_BPS()": "04136546",
          "CANCEL_TIMEOUT()": "3575ce64",
          "LOCK_DEADLINE()": "efa7f38d",
          "MIN_PLEDGE()": "305e9eb7",
          "accept(uint256)": "19b05f49",
          "cUSD()": "1fccf672",
          "cancel(uint256)": "40e58ee5",
          "cancelExpired(uint256)": "5a5aae1e",
          "confirm(uint256)": "ba0179b5",
          "getEscrow(uint256)": "7d19e596",
          "getPledge(uint256)": "90c4ce52",
          "lock(uint256)": "dd467064",
          "matchNFT()": "c812f326",
          "owner()": "8da5cb5b",
          "pledgeCount()": "c6d6c183",
          "pledges(uint256)": "ac124081",
          "propose(uint256,uint256,uint256)": "40376d56",
          "renounceOwnership()": "715018a6",
          "resolveTimeout(uint256)": "292f3da5",
          "setTreasury(address)": "f0f44260",
          "signMutualCancel(uint256)": "c129064d",
          "transferOwnership(address)": "f2fde38b",
          "treasury()": "61d027b3",
          "unstake(uint256)": "2e17de78"
        }
      }
    }
  }
}